{
	"data": {
		"bytecode": {
			"linkReferences": {},
			"object": "608060405234801561001057600080fd5b506107fb806100206000396000f3fe608060405234801561001057600080fd5b506004361061021c5760003560e01c80637dc0d1d011610125578063bb82aa5e116100ad578063e37d4b791161007c578063e37d4b79146104fc578063e6653f3d14610522578063e87554461461052a578063f851a44014610532578063fa6331d81461053a5761021c565b8063bb82aa5e146104b8578063bec04f72146104c0578063dce15449146104c8578063dcfbc0c7146104f45761021c565b80638e8f294b116100f45780638e8f294b1461040a5780639254f5e51461045257806394b2294b1461045a578063ac0b0bb714610462578063b8324c7c1461046a5761021c565b80637dc0d1d0146103cc578063879c2e1d146103d457806387f76303146103dc5780638a7dc165146103e45761021c565b806341a18d2c116101a85780636d154ea5116101775780636d154ea514610368578063719f701b1461038e578063731f0c2b1461039657806376551383146103bc5780637d172bd5146103c45761021c565b806341a18d2c1461030d578063425fad581461033b5780634ada90af1461034357806352d84d1e1461034b5761021c565b806326782247116101ef57806326782247146102b35780632bc7e29e146102bb578063399cc80c146102e15780633c94786f146102e95780634088c73e146103055761021c565b806308e0225c146102215780630db4b4e5146102615780631abcaa771461026957806324a3d6221461028f575b600080fd5b61024f6004803603604081101561023757600080fd5b506001600160a01b0381358116916020013516610542565b60408051918252519081900360200190f35b61024f61055f565b61024f6004803603602081101561027f57600080fd5b50356001600160a01b0316610565565b610297610577565b604080516001600160a01b039092168252519081900360200190f35b610297610586565b61024f600480360360208110156102d157600080fd5b50356001600160a01b0316610595565b61024f6105a7565b6102f16105ad565b604080519115158252519081900360200190f35b6102f16105bd565b61024f6004803603604081101561032357600080fd5b506001600160a01b03813581169160200135166105c6565b6102f16105e3565b61024f6105f2565b6102976004803603602081101561036157600080fd5b50356105f8565b6102f16004803603602081101561037e57600080fd5b50356001600160a01b031661061f565b61024f610634565b6102f1600480360360208110156103ac57600080fd5b50356001600160a01b031661063a565b6102f161064f565b61029761065d565b61029761066c565b61024f61067b565b6102f1610681565b61024f600480360360208110156103fa57600080fd5b50356001600160a01b0316610691565b6104306004803603602081101561042057600080fd5b50356001600160a01b03166106a3565b6040805193151584526020840192909252151582820152519081900360600190f35b6102976106c9565b61024f6106d8565b6102f16106de565b6104906004803603602081101561048057600080fd5b50356001600160a01b03166106ee565b604080516001600160e01b03909316835263ffffffff90911660208301528051918290030190f35b610297610718565b61024f610727565b610297600480360360408110156104de57600080fd5b506001600160a01b03813516906020013561072d565b610297610762565b6104906004803603602081101561051257600080fd5b50356001600160a01b0316610771565b6102f161079b565b61024f6107ab565b6102976107b1565b61024f6107c0565b601360209081526000928352604080842090915290825290205481565b601d5481565b600f6020526000908152604090205481565b600a546001600160a01b031681565b6001546001600160a01b031681565b60166020526000908152604090205481565b60195481565b600a54600160a01b900460ff1681565b60185460ff1681565b601260209081526000928352604080842090915290825290205481565b60185462010000900460ff1681565b60065481565b600d818154811061060557fe5b6000918252602090912001546001600160a01b0316905081565b600c6020526000908152604090205460ff1681565b601c5481565b600b6020526000908152604090205460ff1681565b601854610100900460ff1681565b601b546001600160a01b031681565b6004546001600160a01b031681565b600e5481565b600a54600160b01b900460ff1681565b60146020526000908152604090205481565b60096020526000908152604090208054600182015460039092015460ff91821692911683565b6015546001600160a01b031681565b60075481565b600a54600160b81b900460ff1681565b6010602052600090815260409020546001600160e01b03811690600160e01b900463ffffffff1682565b6002546001600160a01b031681565b60175481565b6008602052816000526040600020818154811061074657fe5b6000918252602090912001546001600160a01b03169150829050565b6003546001600160a01b031681565b6011602052600090815260409020546001600160e01b03811690600160e01b900463ffffffff1682565b600a54600160a81b900460ff1681565b60055481565b6000546001600160a01b031681565b601a548156fea265627a7a7231582070fe5be485679601962281461c87991a30d6ed1be82e77f27d2011d7d2fee82a64736f6c63430005110032",
			"opcodes": "PUSH1 0x80 PUSH1 0x40 MSTORE CALLVALUE DUP1 ISZERO PUSH2 0x10 JUMPI PUSH1 0x0 DUP1 REVERT JUMPDEST POP PUSH2 0x7FB DUP1 PUSH2 0x20 PUSH1 0x0 CODECOPY PUSH1 0x0 RETURN INVALID PUSH1 0x80 PUSH1 0x40 MSTORE CALLVALUE DUP1 ISZERO PUSH2 0x10 JUMPI PUSH1 0x0 DUP1 REVERT JUMPDEST POP PUSH1 0x4 CALLDATASIZE LT PUSH2 0x21C JUMPI PUSH1 0x0 CALLDATALOAD PUSH1 0xE0 SHR DUP1 PUSH4 0x7DC0D1D0 GT PUSH2 0x125 JUMPI DUP1 PUSH4 0xBB82AA5E GT PUSH2 0xAD JUMPI DUP1 PUSH4 0xE37D4B79 GT PUSH2 0x7C JUMPI DUP1 PUSH4 0xE37D4B79 EQ PUSH2 0x4FC JUMPI DUP1 PUSH4 0xE6653F3D EQ PUSH2 0x522 JUMPI DUP1 PUSH4 0xE8755446 EQ PUSH2 0x52A JUMPI DUP1 PUSH4 0xF851A440 EQ PUSH2 0x532 JUMPI DUP1 PUSH4 0xFA6331D8 EQ PUSH2 0x53A JUMPI PUSH2 0x21C JUMP JUMPDEST DUP1 PUSH4 0xBB82AA5E EQ PUSH2 0x4B8 JUMPI DUP1 PUSH4 0xBEC04F72 EQ PUSH2 0x4C0 JUMPI DUP1 PUSH4 0xDCE15449 EQ PUSH2 0x4C8 JUMPI DUP1 PUSH4 0xDCFBC0C7 EQ PUSH2 0x4F4 JUMPI PUSH2 0x21C JUMP JUMPDEST DUP1 PUSH4 0x8E8F294B GT PUSH2 0xF4 JUMPI DUP1 PUSH4 0x8E8F294B EQ PUSH2 0x40A JUMPI DUP1 PUSH4 0x9254F5E5 EQ PUSH2 0x452 JUMPI DUP1 PUSH4 0x94B2294B EQ PUSH2 0x45A JUMPI DUP1 PUSH4 0xAC0B0BB7 EQ PUSH2 0x462 JUMPI DUP1 PUSH4 0xB8324C7C EQ PUSH2 0x46A JUMPI PUSH2 0x21C JUMP JUMPDEST DUP1 PUSH4 0x7DC0D1D0 EQ PUSH2 0x3CC JUMPI DUP1 PUSH4 0x879C2E1D EQ PUSH2 0x3D4 JUMPI DUP1 PUSH4 0x87F76303 EQ PUSH2 0x3DC JUMPI DUP1 PUSH4 0x8A7DC165 EQ PUSH2 0x3E4 JUMPI PUSH2 0x21C JUMP JUMPDEST DUP1 PUSH4 0x41A18D2C GT PUSH2 0x1A8 JUMPI DUP1 PUSH4 0x6D154EA5 GT PUSH2 0x177 JUMPI DUP1 PUSH4 0x6D154EA5 EQ PUSH2 0x368 JUMPI DUP1 PUSH4 0x719F701B EQ PUSH2 0x38E JUMPI DUP1 PUSH4 0x731F0C2B EQ PUSH2 0x396 JUMPI DUP1 PUSH4 0x76551383 EQ PUSH2 0x3BC JUMPI DUP1 PUSH4 0x7D172BD5 EQ PUSH2 0x3C4 JUMPI PUSH2 0x21C JUMP JUMPDEST DUP1 PUSH4 0x41A18D2C EQ PUSH2 0x30D JUMPI DUP1 PUSH4 0x425FAD58 EQ PUSH2 0x33B JUMPI DUP1 PUSH4 0x4ADA90AF EQ PUSH2 0x343 JUMPI DUP1 PUSH4 0x52D84D1E EQ PUSH2 0x34B JUMPI PUSH2 0x21C JUMP JUMPDEST DUP1 PUSH4 0x26782247 GT PUSH2 0x1EF JUMPI DUP1 PUSH4 0x26782247 EQ PUSH2 0x2B3 JUMPI DUP1 PUSH4 0x2BC7E29E EQ PUSH2 0x2BB JUMPI DUP1 PUSH4 0x399CC80C EQ PUSH2 0x2E1 JUMPI DUP1 PUSH4 0x3C94786F EQ PUSH2 0x2E9 JUMPI DUP1 PUSH4 0x4088C73E EQ PUSH2 0x305 JUMPI PUSH2 0x21C JUMP JUMPDEST DUP1 PUSH4 0x8E0225C EQ PUSH2 0x221 JUMPI DUP1 PUSH4 0xDB4B4E5 EQ PUSH2 0x261 JUMPI DUP1 PUSH4 0x1ABCAA77 EQ PUSH2 0x269 JUMPI DUP1 PUSH4 0x24A3D622 EQ PUSH2 0x28F JUMPI JUMPDEST PUSH1 0x0 DUP1 REVERT JUMPDEST PUSH2 0x24F PUSH1 0x4 DUP1 CALLDATASIZE SUB PUSH1 0x40 DUP2 LT ISZERO PUSH2 0x237 JUMPI PUSH1 0x0 DUP1 REVERT JUMPDEST POP PUSH1 0x1 PUSH1 0x1 PUSH1 0xA0 SHL SUB DUP2 CALLDATALOAD DUP2 AND SWAP2 PUSH1 0x20 ADD CALLDATALOAD AND PUSH2 0x542 JUMP JUMPDEST PUSH1 0x40 DUP1 MLOAD SWAP2 DUP3 MSTORE MLOAD SWAP1 DUP2 SWAP1 SUB PUSH1 0x20 ADD SWAP1 RETURN JUMPDEST PUSH2 0x24F PUSH2 0x55F JUMP JUMPDEST PUSH2 0x24F PUSH1 0x4 DUP1 CALLDATASIZE SUB PUSH1 0x20 DUP2 LT ISZERO PUSH2 0x27F JUMPI PUSH1 0x0 DUP1 REVERT JUMPDEST POP CALLDATALOAD PUSH1 0x1 PUSH1 0x1 PUSH1 0xA0 SHL SUB AND PUSH2 0x565 JUMP JUMPDEST PUSH2 0x297 PUSH2 0x577 JUMP JUMPDEST PUSH1 0x40 DUP1 MLOAD PUSH1 0x1 PUSH1 0x1 PUSH1 0xA0 SHL SUB SWAP1 SWAP3 AND DUP3 MSTORE MLOAD SWAP1 DUP2 SWAP1 SUB PUSH1 0x20 ADD SWAP1 RETURN JUMPDEST PUSH2 0x297 PUSH2 0x586 JUMP JUMPDEST PUSH2 0x24F PUSH1 0x4 DUP1 CALLDATASIZE SUB PUSH1 0x20 DUP2 LT ISZERO PUSH2 0x2D1 JUMPI PUSH1 0x0 DUP1 REVERT JUMPDEST POP CALLDATALOAD PUSH1 0x1 PUSH1 0x1 PUSH1 0xA0 SHL SUB AND PUSH2 0x595 JUMP JUMPDEST PUSH2 0x24F PUSH2 0x5A7 JUMP JUMPDEST PUSH2 0x2F1 PUSH2 0x5AD JUMP JUMPDEST PUSH1 0x40 DUP1 MLOAD SWAP2 ISZERO ISZERO DUP3 MSTORE MLOAD SWAP1 DUP2 SWAP1 SUB PUSH1 0x20 ADD SWAP1 RETURN JUMPDEST PUSH2 0x2F1 PUSH2 0x5BD JUMP JUMPDEST PUSH2 0x24F PUSH1 0x4 DUP1 CALLDATASIZE SUB PUSH1 0x40 DUP2 LT ISZERO PUSH2 0x323 JUMPI PUSH1 0x0 DUP1 REVERT JUMPDEST POP PUSH1 0x1 PUSH1 0x1 PUSH1 0xA0 SHL SUB DUP2 CALLDATALOAD DUP2 AND SWAP2 PUSH1 0x20 ADD CALLDATALOAD AND PUSH2 0x5C6 JUMP JUMPDEST PUSH2 0x2F1 PUSH2 0x5E3 JUMP JUMPDEST PUSH2 0x24F PUSH2 0x5F2 JUMP JUMPDEST PUSH2 0x297 PUSH1 0x4 DUP1 CALLDATASIZE SUB PUSH1 0x20 DUP2 LT ISZERO PUSH2 0x361 JUMPI PUSH1 0x0 DUP1 REVERT JUMPDEST POP CALLDATALOAD PUSH2 0x5F8 JUMP JUMPDEST PUSH2 0x2F1 PUSH1 0x4 DUP1 CALLDATASIZE SUB PUSH1 0x20 DUP2 LT ISZERO PUSH2 0x37E JUMPI PUSH1 0x0 DUP1 REVERT JUMPDEST POP CALLDATALOAD PUSH1 0x1 PUSH1 0x1 PUSH1 0xA0 SHL SUB AND PUSH2 0x61F JUMP JUMPDEST PUSH2 0x24F PUSH2 0x634 JUMP JUMPDEST PUSH2 0x2F1 PUSH1 0x4 DUP1 CALLDATASIZE SUB PUSH1 0x20 DUP2 LT ISZERO PUSH2 0x3AC JUMPI PUSH1 0x0 DUP1 REVERT JUMPDEST POP CALLDATALOAD PUSH1 0x1 PUSH1 0x1 PUSH1 0xA0 SHL SUB AND PUSH2 0x63A JUMP JUMPDEST PUSH2 0x2F1 PUSH2 0x64F JUMP JUMPDEST PUSH2 0x297 PUSH2 0x65D JUMP JUMPDEST PUSH2 0x297 PUSH2 0x66C JUMP JUMPDEST PUSH2 0x24F PUSH2 0x67B JUMP JUMPDEST PUSH2 0x2F1 PUSH2 0x681 JUMP JUMPDEST PUSH2 0x24F PUSH1 0x4 DUP1 CALLDATASIZE SUB PUSH1 0x20 DUP2 LT ISZERO PUSH2 0x3FA JUMPI PUSH1 0x0 DUP1 REVERT JUMPDEST POP CALLDATALOAD PUSH1 0x1 PUSH1 0x1 PUSH1 0xA0 SHL SUB AND PUSH2 0x691 JUMP JUMPDEST PUSH2 0x430 PUSH1 0x4 DUP1 CALLDATASIZE SUB PUSH1 0x20 DUP2 LT ISZERO PUSH2 0x420 JUMPI PUSH1 0x0 DUP1 REVERT JUMPDEST POP CALLDATALOAD PUSH1 0x1 PUSH1 0x1 PUSH1 0xA0 SHL SUB AND PUSH2 0x6A3 JUMP JUMPDEST PUSH1 0x40 DUP1 MLOAD SWAP4 ISZERO ISZERO DUP5 MSTORE PUSH1 0x20 DUP5 ADD SWAP3 SWAP1 SWAP3 MSTORE ISZERO ISZERO DUP3 DUP3 ADD MSTORE MLOAD SWAP1 DUP2 SWAP1 SUB PUSH1 0x60 ADD SWAP1 RETURN JUMPDEST PUSH2 0x297 PUSH2 0x6C9 JUMP JUMPDEST PUSH2 0x24F PUSH2 0x6D8 JUMP JUMPDEST PUSH2 0x2F1 PUSH2 0x6DE JUMP JUMPDEST PUSH2 0x490 PUSH1 0x4 DUP1 CALLDATASIZE SUB PUSH1 0x20 DUP2 LT ISZERO PUSH2 0x480 JUMPI PUSH1 0x0 DUP1 REVERT JUMPDEST POP CALLDATALOAD PUSH1 0x1 PUSH1 0x1 PUSH1 0xA0 SHL SUB AND PUSH2 0x6EE JUMP JUMPDEST PUSH1 0x40 DUP1 MLOAD PUSH1 0x1 PUSH1 0x1 PUSH1 0xE0 SHL SUB SWAP1 SWAP4 AND DUP4 MSTORE PUSH4 0xFFFFFFFF SWAP1 SWAP2 AND PUSH1 0x20 DUP4 ADD MSTORE DUP1 MLOAD SWAP2 DUP3 SWAP1 SUB ADD SWAP1 RETURN JUMPDEST PUSH2 0x297 PUSH2 0x718 JUMP JUMPDEST PUSH2 0x24F PUSH2 0x727 JUMP JUMPDEST PUSH2 0x297 PUSH1 0x4 DUP1 CALLDATASIZE SUB PUSH1 0x40 DUP2 LT ISZERO PUSH2 0x4DE JUMPI PUSH1 0x0 DUP1 REVERT JUMPDEST POP PUSH1 0x1 PUSH1 0x1 PUSH1 0xA0 SHL SUB DUP2 CALLDATALOAD AND SWAP1 PUSH1 0x20 ADD CALLDATALOAD PUSH2 0x72D JUMP JUMPDEST PUSH2 0x297 PUSH2 0x762 JUMP JUMPDEST PUSH2 0x490 PUSH1 0x4 DUP1 CALLDATASIZE SUB PUSH1 0x20 DUP2 LT ISZERO PUSH2 0x512 JUMPI PUSH1 0x0 DUP1 REVERT JUMPDEST POP CALLDATALOAD PUSH1 0x1 PUSH1 0x1 PUSH1 0xA0 SHL SUB AND PUSH2 0x771 JUMP JUMPDEST PUSH2 0x2F1 PUSH2 0x79B JUMP JUMPDEST PUSH2 0x24F PUSH2 0x7AB JUMP JUMPDEST PUSH2 0x297 PUSH2 0x7B1 JUMP JUMPDEST PUSH2 0x24F PUSH2 0x7C0 JUMP JUMPDEST PUSH1 0x13 PUSH1 0x20 SWAP1 DUP2 MSTORE PUSH1 0x0 SWAP3 DUP4 MSTORE PUSH1 0x40 DUP1 DUP5 KECCAK256 SWAP1 SWAP2 MSTORE SWAP1 DUP3 MSTORE SWAP1 KECCAK256 SLOAD DUP2 JUMP JUMPDEST PUSH1 0x1D SLOAD DUP2 JUMP JUMPDEST PUSH1 0xF PUSH1 0x20 MSTORE PUSH1 0x0 SWAP1 DUP2 MSTORE PUSH1 0x40 SWAP1 KECCAK256 SLOAD DUP2 JUMP JUMPDEST PUSH1 0xA SLOAD PUSH1 0x1 PUSH1 0x1 PUSH1 0xA0 SHL SUB AND DUP2 JUMP JUMPDEST PUSH1 0x1 SLOAD PUSH1 0x1 PUSH1 0x1 PUSH1 0xA0 SHL SUB AND DUP2 JUMP JUMPDEST PUSH1 0x16 PUSH1 0x20 MSTORE PUSH1 0x0 SWAP1 DUP2 MSTORE PUSH1 0x40 SWAP1 KECCAK256 SLOAD DUP2 JUMP JUMPDEST PUSH1 0x19 SLOAD DUP2 JUMP JUMPDEST PUSH1 0xA SLOAD PUSH1 0x1 PUSH1 0xA0 SHL SWAP1 DIV PUSH1 0xFF AND DUP2 JUMP JUMPDEST PUSH1 0x18 SLOAD PUSH1 0xFF AND DUP2 JUMP JUMPDEST PUSH1 0x12 PUSH1 0x20 SWAP1 DUP2 MSTORE PUSH1 0x0 SWAP3 DUP4 MSTORE PUSH1 0x40 DUP1 DUP5 KECCAK256 SWAP1 SWAP2 MSTORE SWAP1 DUP3 MSTORE SWAP1 KECCAK256 SLOAD DUP2 JUMP JUMPDEST PUSH1 0x18 SLOAD PUSH3 0x10000 SWAP1 DIV PUSH1 0xFF AND DUP2 JUMP JUMPDEST PUSH1 0x6 SLOAD DUP2 JUMP JUMPDEST PUSH1 0xD DUP2 DUP2 SLOAD DUP2 LT PUSH2 0x605 JUMPI INVALID JUMPDEST PUSH1 0x0 SWAP2 DUP3 MSTORE PUSH1 0x20 SWAP1 SWAP2 KECCAK256 ADD SLOAD PUSH1 0x1 PUSH1 0x1 PUSH1 0xA0 SHL SUB AND SWAP1 POP DUP2 JUMP JUMPDEST PUSH1 0xC PUSH1 0x20 MSTORE PUSH1 0x0 SWAP1 DUP2 MSTORE PUSH1 0x40 SWAP1 KECCAK256 SLOAD PUSH1 0xFF AND DUP2 JUMP JUMPDEST PUSH1 0x1C SLOAD DUP2 JUMP JUMPDEST PUSH1 0xB PUSH1 0x20 MSTORE PUSH1 0x0 SWAP1 DUP2 MSTORE PUSH1 0x40 SWAP1 KECCAK256 SLOAD PUSH1 0xFF AND DUP2 JUMP JUMPDEST PUSH1 0x18 SLOAD PUSH2 0x100 SWAP1 DIV PUSH1 0xFF AND DUP2 JUMP JUMPDEST PUSH1 0x1B SLOAD PUSH1 0x1 PUSH1 0x1 PUSH1 0xA0 SHL SUB AND DUP2 JUMP JUMPDEST PUSH1 0x4 SLOAD PUSH1 0x1 PUSH1 0x1 PUSH1 0xA0 SHL SUB AND DUP2 JUMP JUMPDEST PUSH1 0xE SLOAD DUP2 JUMP JUMPDEST PUSH1 0xA SLOAD PUSH1 0x1 PUSH1 0xB0 SHL SWAP1 DIV PUSH1 0xFF AND DUP2 JUMP JUMPDEST PUSH1 0x14 PUSH1 0x20 MSTORE PUSH1 0x0 SWAP1 DUP2 MSTORE PUSH1 0x40 SWAP1 KECCAK256 SLOAD DUP2 JUMP JUMPDEST PUSH1 0x9 PUSH1 0x20 MSTORE PUSH1 0x0 SWAP1 DUP2 MSTORE PUSH1 0x40 SWAP1 KECCAK256 DUP1 SLOAD PUSH1 0x1 DUP3 ADD SLOAD PUSH1 0x3 SWAP1 SWAP3 ADD SLOAD PUSH1 0xFF SWAP2 DUP3 AND SWAP3 SWAP2 AND DUP4 JUMP JUMPDEST PUSH1 0x15 SLOAD PUSH1 0x1 PUSH1 0x1 PUSH1 0xA0 SHL SUB AND DUP2 JUMP JUMPDEST PUSH1 0x7 SLOAD DUP2 JUMP JUMPDEST PUSH1 0xA SLOAD PUSH1 0x1 PUSH1 0xB8 SHL SWAP1 DIV PUSH1 0xFF AND DUP2 JUMP JUMPDEST PUSH1 0x10 PUSH1 0x20 MSTORE PUSH1 0x0 SWAP1 DUP2 MSTORE PUSH1 0x40 SWAP1 KECCAK256 SLOAD PUSH1 0x1 PUSH1 0x1 PUSH1 0xE0 SHL SUB DUP2 AND SWAP1 PUSH1 0x1 PUSH1 0xE0 SHL SWAP1 DIV PUSH4 0xFFFFFFFF AND DUP3 JUMP JUMPDEST PUSH1 0x2 SLOAD PUSH1 0x1 PUSH1 0x1 PUSH1 0xA0 SHL SUB AND DUP2 JUMP JUMPDEST PUSH1 0x17 SLOAD DUP2 JUMP JUMPDEST PUSH1 0x8 PUSH1 0x20 MSTORE DUP2 PUSH1 0x0 MSTORE PUSH1 0x40 PUSH1 0x0 KECCAK256 DUP2 DUP2 SLOAD DUP2 LT PUSH2 0x746 JUMPI INVALID JUMPDEST PUSH1 0x0 SWAP2 DUP3 MSTORE PUSH1 0x20 SWAP1 SWAP2 KECCAK256 ADD SLOAD PUSH1 0x1 PUSH1 0x1 PUSH1 0xA0 SHL SUB AND SWAP2 POP DUP3 SWAP1 POP JUMP JUMPDEST PUSH1 0x3 SLOAD PUSH1 0x1 PUSH1 0x1 PUSH1 0xA0 SHL SUB AND DUP2 JUMP JUMPDEST PUSH1 0x11 PUSH1 0x20 MSTORE PUSH1 0x0 SWAP1 DUP2 MSTORE PUSH1 0x40 SWAP1 KECCAK256 SLOAD PUSH1 0x1 PUSH1 0x1 PUSH1 0xE0 SHL SUB DUP2 AND SWAP1 PUSH1 0x1 PUSH1 0xE0 SHL SWAP1 DIV PUSH4 0xFFFFFFFF AND DUP3 JUMP JUMPDEST PUSH1 0xA SLOAD PUSH1 0x1 PUSH1 0xA8 SHL SWAP1 DIV PUSH1 0xFF AND DUP2 JUMP JUMPDEST PUSH1 0x5 SLOAD DUP2 JUMP JUMPDEST PUSH1 0x0 SLOAD PUSH1 0x1 PUSH1 0x1 PUSH1 0xA0 SHL SUB AND DUP2 JUMP JUMPDEST PUSH1 0x1A SLOAD DUP2 JUMP INVALID LOG2 PUSH6 0x627A7A723158 KECCAK256 PUSH17 0xFE5BE485679601962281461C87991A30D6 0xED SHL 0xE8 0x2E PUSH24 0xF27D2011D7D2FEE82A64736F6C6343000511003200000000 "
		},
		"gasEstimates": {
			"creation": {
				"codeDepositCost": "408600",
				"executionCost": "443",
				"totalCost": "409043"
			},
			"external": {
				"_borrowGuardianPaused()": "1093",
				"_mintGuardianPaused()": "1139",
				"accountAssets(address,uint256)": "2160",
				"admin()": "1147",
				"allMarkets(uint256)": "2082",
				"borrowGuardianPaused(address)": "1181",
				"closeFactorMantissa()": "1086",
				"comptrollerImplementation()": "1082",
				"liquidationIncentiveMantissa()": "1088",
				"markets(address)": "2865",
				"maxAssets()": "1087",
				"minReleaseAmount()": "1067",
				"mintGuardianPaused(address)": "1225",
				"mintVAIGuardianPaused()": "1144",
				"mintedVAIs(address)": "1192",
				"oracle()": "1083",
				"pauseGuardian()": "1150",
				"pendingAdmin()": "1083",
				"pendingComptrollerImplementation()": "1148",
				"protocolPaused()": "1089",
				"releaseStartBlock()": "1065",
				"repayVAIGuardianPaused()": "1132",
				"seizeGuardianPaused()": "1138",
				"transferGuardianPaused()": "1117",
				"vaiController()": "1104",
				"vaiMintRate()": "1065",
				"vaiVaultAddress()": "1170",
				"venusAccrued(address)": "1236",
				"venusBorrowState(address)": "1263",
				"venusBorrowerIndex(address,address)": "1264",
				"venusRate()": "1066",
				"venusSpeeds(address)": "1215",
				"venusSupplierIndex(address,address)": "1263",
				"venusSupplyState(address)": "1352",
				"venusVAIRate()": "1088",
				"venusVAIVaultRate()": "1130"
			}
		},
		"methodIdentifiers": {
			"_borrowGuardianPaused()": "e6653f3d",
			"_mintGuardianPaused()": "3c94786f",
			"accountAssets(address,uint256)": "dce15449",
			"admin()": "f851a440",
			"allMarkets(uint256)": "52d84d1e",
			"borrowGuardianPaused(address)": "6d154ea5",
			"closeFactorMantissa()": "e8755446",
			"comptrollerImplementation()": "bb82aa5e",
			"liquidationIncentiveMantissa()": "4ada90af",
			"markets(address)": "8e8f294b",
			"maxAssets()": "94b2294b",
			"minReleaseAmount()": "0db4b4e5",
			"mintGuardianPaused(address)": "731f0c2b",
			"mintVAIGuardianPaused()": "4088c73e",
			"mintedVAIs(address)": "2bc7e29e",
			"oracle()": "7dc0d1d0",
			"pauseGuardian()": "24a3d622",
			"pendingAdmin()": "26782247",
			"pendingComptrollerImplementation()": "dcfbc0c7",
			"protocolPaused()": "425fad58",
			"releaseStartBlock()": "719f701b",
			"repayVAIGuardianPaused()": "76551383",
			"seizeGuardianPaused()": "ac0b0bb7",
			"transferGuardianPaused()": "87f76303",
			"vaiController()": "9254f5e5",
			"vaiMintRate()": "bec04f72",
			"vaiVaultAddress()": "7d172bd5",
			"venusAccrued(address)": "8a7dc165",
			"venusBorrowState(address)": "e37d4b79",
			"venusBorrowerIndex(address,address)": "08e0225c",
			"venusRate()": "879c2e1d",
			"venusSpeeds(address)": "1abcaa77",
			"venusSupplierIndex(address,address)": "41a18d2c",
			"venusSupplyState(address)": "b8324c7c",
			"venusVAIRate()": "399cc80c",
			"venusVAIVaultRate()": "fa6331d8"
		}
	},
	"abi": [
		{
			"constant": true,
			"inputs": [],
			"name": "_borrowGuardianPaused",
			"outputs": [
				{
					"internalType": "bool",
					"name": "",
					"type": "bool"
				}
			],
			"payable": false,
			"stateMutability": "view",
			"type": "function"
		},
		{
			"constant": true,
			"inputs": [],
			"name": "_mintGuardianPaused",
			"outputs": [
				{
					"internalType": "bool",
					"name": "",
					"type": "bool"
				}
			],
			"payable": false,
			"stateMutability": "view",
			"type": "function"
		},
		{
			"constant": true,
			"inputs": [
				{
					"internalType": "address",
					"name": "",
					"type": "address"
				},
				{
					"internalType": "uint256",
					"name": "",
					"type": "uint256"
				}
			],
			"name": "accountAssets",
			"outputs": [
				{
					"internalType": "contract VToken",
					"name": "",
					"type": "address"
				}
			],
			"payable": false,
			"stateMutability": "view",
			"type": "function"
		},
		{
			"constant": true,
			"inputs": [],
			"name": "admin",
			"outputs": [
				{
					"internalType": "address",
					"name": "",
					"type": "address"
				}
			],
			"payable": false,
			"stateMutability": "view",
			"type": "function"
		},
		{
			"constant": true,
			"inputs": [
				{
					"internalType": "uint256",
					"name": "",
					"type": "uint256"
				}
			],
			"name": "allMarkets",
			"outputs": [
				{
					"internalType": "contract VToken",
					"name": "",
					"type": "address"
				}
			],
			"payable": false,
			"stateMutability": "view",
			"type": "function"
		},
		{
			"constant": true,
			"inputs": [
				{
					"internalType": "address",
					"name": "",
					"type": "address"
				}
			],
			"name": "borrowGuardianPaused",
			"outputs": [
				{
					"internalType": "bool",
					"name": "",
					"type": "bool"
				}
			],
			"payable": false,
			"stateMutability": "view",
			"type": "function"
		},
		{
			"constant": true,
			"inputs": [],
			"name": "closeFactorMantissa",
			"outputs": [
				{
					"internalType": "uint256",
					"name": "",
					"type": "uint256"
				}
			],
			"payable": false,
			"stateMutability": "view",
			"type": "function"
		},
		{
			"constant": true,
			"inputs": [],
			"name": "comptrollerImplementation",
			"outputs": [
				{
					"internalType": "address",
					"name": "",
					"type": "address"
				}
			],
			"payable": false,
			"stateMutability": "view",
			"type": "function"
		},
		{
			"constant": true,
			"inputs": [],
			"name": "liquidationIncentiveMantissa",
			"outputs": [
				{
					"internalType": "uint256",
					"name": "",
					"type": "uint256"
				}
			],
			"payable": false,
			"stateMutability": "view",
			"type": "function"
		},
		{
			"constant": true,
			"inputs": [
				{
					"internalType": "address",
					"name": "",
					"type": "address"
				}
			],
			"name": "markets",
			"outputs": [
				{
					"internalType": "bool",
					"name": "isListed",
					"type": "bool"
				},
				{
					"internalType": "uint256",
					"name": "collateralFactorMantissa",
					"type": "uint256"
				},
				{
					"internalType": "bool",
					"name": "isVenus",
					"type": "bool"
				}
			],
			"payable": false,
			"stateMutability": "view",
			"type": "function"
		},
		{
			"constant": true,
			"inputs": [],
			"name": "maxAssets",
			"outputs": [
				{
					"internalType": "uint256",
					"name": "",
					"type": "uint256"
				}
			],
			"payable": false,
			"stateMutability": "view",
			"type": "function"
		},
		{
			"constant": true,
			"inputs": [],
			"name": "minReleaseAmount",
			"outputs": [
				{
					"internalType": "uint256",
					"name": "",
					"type": "uint256"
				}
			],
			"payable": false,
			"stateMutability": "view",
			"type": "function"
		},
		{
			"constant": true,
			"inputs": [
				{
					"internalType": "address",
					"name": "",
					"type": "address"
				}
			],
			"name": "mintGuardianPaused",
			"outputs": [
				{
					"internalType": "bool",
					"name": "",
					"type": "bool"
				}
			],
			"payable": false,
			"stateMutability": "view",
			"type": "function"
		},
		{
			"constant": true,
			"inputs": [],
			"name": "mintVAIGuardianPaused",
			"outputs": [
				{
					"internalType": "bool",
					"name": "",
					"type": "bool"
				}
			],
			"payable": false,
			"stateMutability": "view",
			"type": "function"
		},
		{
			"constant": true,
			"inputs": [
				{
					"internalType": "address",
					"name": "",
					"type": "address"
				}
			],
			"name": "mintedVAIs",
			"outputs": [
				{
					"internalType": "uint256",
					"name": "",
					"type": "uint256"
				}
			],
			"payable": false,
			"stateMutability": "view",
			"type": "function"
		},
		{
			"constant": true,
			"inputs": [],
			"name": "oracle",
			"outputs": [
				{
					"internalType": "contract PriceOracle",
					"name": "",
					"type": "address"
				}
			],
			"payable": false,
			"stateMutability": "view",
			"type": "function"
		},
		{
			"constant": true,
			"inputs": [],
			"name": "pauseGuardian",
			"outputs": [
				{
					"internalType": "address",
					"name": "",
					"type": "address"
				}
			],
			"payable": false,
			"stateMutability": "view",
			"type": "function"
		},
		{
			"constant": true,
			"inputs": [],
			"name": "pendingAdmin",
			"outputs": [
				{
					"internalType": "address",
					"name": "",
					"type": "address"
				}
			],
			"payable": false,
			"stateMutability": "view",
			"type": "function"
		},
		{
			"constant": true,
			"inputs": [],
			"name": "pendingComptrollerImplementation",
			"outputs": [
				{
					"internalType": "address",
					"name": "",
					"type": "address"
				}
			],
			"payable": false,
			"stateMutability": "view",
			"type": "function"
		},
		{
			"constant": true,
			"inputs": [],
			"name": "protocolPaused",
			"outputs": [
				{
					"internalType": "bool",
					"name": "",
					"type": "bool"
				}
			],
			"payable": false,
			"stateMutability": "view",
			"type": "function"
		},
		{
			"constant": true,
			"inputs": [],
			"name": "releaseStartBlock",
			"outputs": [
				{
					"internalType": "uint256",
					"name": "",
					"type": "uint256"
				}
			],
			"payable": false,
			"stateMutability": "view",
			"type": "function"
		},
		{
			"constant": true,
			"inputs": [],
			"name": "repayVAIGuardianPaused",
			"outputs": [
				{
					"internalType": "bool",
					"name": "",
					"type": "bool"
				}
			],
			"payable": false,
			"stateMutability": "view",
			"type": "function"
		},
		{
			"constant": true,
			"inputs": [],
			"name": "seizeGuardianPaused",
			"outputs": [
				{
					"internalType": "bool",
					"name": "",
					"type": "bool"
				}
			],
			"payable": false,
			"stateMutability": "view",
			"type": "function"
		},
		{
			"constant": true,
			"inputs": [],
			"name": "transferGuardianPaused",
			"outputs": [
				{
					"internalType": "bool",
					"name": "",
					"type": "bool"
				}
			],
			"payable": false,
			"stateMutability": "view",
			"type": "function"
		},
		{
			"constant": true,
			"inputs": [],
			"name": "vaiController",
			"outputs": [
				{
					"internalType": "contract VAIControllerInterface",
					"name": "",
					"type": "address"
				}
			],
			"payable": false,
			"stateMutability": "view",
			"type": "function"
		},
		{
			"constant": true,
			"inputs": [],
			"name": "vaiMintRate",
			"outputs": [
				{
					"internalType": "uint256",
					"name": "",
					"type": "uint256"
				}
			],
			"payable": false,
			"stateMutability": "view",
			"type": "function"
		},
		{
			"constant": true,
			"inputs": [],
			"name": "vaiVaultAddress",
			"outputs": [
				{
					"internalType": "address",
					"name": "",
					"type": "address"
				}
			],
			"payable": false,
			"stateMutability": "view",
			"type": "function"
		},
		{
			"constant": true,
			"inputs": [
				{
					"internalType": "address",
					"name": "",
					"type": "address"
				}
			],
			"name": "venusAccrued",
			"outputs": [
				{
					"internalType": "uint256",
					"name": "",
					"type": "uint256"
				}
			],
			"payable": false,
			"stateMutability": "view",
			"type": "function"
		},
		{
			"constant": true,
			"inputs": [
				{
					"internalType": "address",
					"name": "",
					"type": "address"
				}
			],
			"name": "venusBorrowState",
			"outputs": [
				{
					"internalType": "uint224",
					"name": "index",
					"type": "uint224"
				},
				{
					"internalType": "uint32",
					"name": "block",
					"type": "uint32"
				}
			],
			"payable": false,
			"stateMutability": "view",
			"type": "function"
		},
		{
			"constant": true,
			"inputs": [
				{
					"internalType": "address",
					"name": "",
					"type": "address"
				},
				{
					"internalType": "address",
					"name": "",
					"type": "address"
				}
			],
			"name": "venusBorrowerIndex",
			"outputs": [
				{
					"internalType": "uint256",
					"name": "",
					"type": "uint256"
				}
			],
			"payable": false,
			"stateMutability": "view",
			"type": "function"
		},
		{
			"constant": true,
			"inputs": [],
			"name": "venusRate",
			"outputs": [
				{
					"internalType": "uint256",
					"name": "",
					"type": "uint256"
				}
			],
			"payable": false,
			"stateMutability": "view",
			"type": "function"
		},
		{
			"constant": true,
			"inputs": [
				{
					"internalType": "address",
					"name": "",
					"type": "address"
				}
			],
			"name": "venusSpeeds",
			"outputs": [
				{
					"internalType": "uint256",
					"name": "",
					"type": "uint256"
				}
			],
			"payable": false,
			"stateMutability": "view",
			"type": "function"
		},
		{
			"constant": true,
			"inputs": [
				{
					"internalType": "address",
					"name": "",
					"type": "address"
				},
				{
					"internalType": "address",
					"name": "",
					"type": "address"
				}
			],
			"name": "venusSupplierIndex",
			"outputs": [
				{
					"internalType": "uint256",
					"name": "",
					"type": "uint256"
				}
			],
			"payable": false,
			"stateMutability": "view",
			"type": "function"
		},
		{
			"constant": true,
			"inputs": [
				{
					"internalType": "address",
					"name": "",
					"type": "address"
				}
			],
			"name": "venusSupplyState",
			"outputs": [
				{
					"internalType": "uint224",
					"name": "index",
					"type": "uint224"
				},
				{
					"internalType": "uint32",
					"name": "block",
					"type": "uint32"
				}
			],
			"payable": false,
			"stateMutability": "view",
			"type": "function"
		},
		{
			"constant": true,
			"inputs": [],
			"name": "venusVAIRate",
			"outputs": [
				{
					"internalType": "uint256",
					"name": "",
					"type": "uint256"
				}
			],
			"payable": false,
			"stateMutability": "view",
			"type": "function"
		},
		{
			"constant": true,
			"inputs": [],
			"name": "venusVAIVaultRate",
			"outputs": [
				{
					"internalType": "uint256",
					"name": "",
					"type": "uint256"
				}
			],
			"payable": false,
			"stateMutability": "view",
			"type": "function"
		}
	]
}