{
	"data": {
		"bytecode": {
			"linkReferences": {},
			"object": "6080604052600080546001600160a01b03191673931f176bee590f13ca2b9d163c135f065c7a22cc17905534801561003657600080fd5b5061213c806100466000396000f3fe608060405234801561001057600080fd5b50600436106101205760003560e01c80635fe3b567116100ad578063cbeb2b2811610071578063cbeb2b28146102c5578063d178273b146102cd578063d244b08114610319578063e44e616814610321578063f851a4401461035157610120565b80635fe3b5671461025857806360c954ef146102605780636fe74a211461027c578063b06bb42614610299578063c5b4db55146102a157610120565b80633785d1d6116100f45780633785d1d6146101b157806342cbb15c146101f05780634576b5db146101f85780634712ee7d1461021e5780635035920a1461023b57610120565b80623b5884146101255780631d504dc614610149578063246506021461017157806326782247146101a9575b600080fd5b61012d610359565b604080516001600160a01b039092168252519081900360200190f35b61016f6004803603602081101561015f57600080fd5b50356001600160a01b0316610368565b005b6101976004803603602081101561018757600080fd5b50356001600160a01b03166104c7565b60408051918252519081900360200190f35b61012d6104d9565b6101d7600480360360208110156101c757600080fd5b50356001600160a01b03166104e8565b6040805192835260208301919091528051918290030190f35b610197610b17565b6101976004803603602081101561020e57600080fd5b50356001600160a01b0316610b1b565b6101976004803603602081101561023457600080fd5b5035610bab565b6101976004803603602081101561025157600080fd5b5035610f6c565b61012d611063565b610268611072565b604080519115158252519081900360200190f35b6101976004803603602081101561029257600080fd5b503561107b565b61012d6113d8565b6102a96113e7565b604080516001600160e01b039092168252519081900360200190f35b61012d6113fa565b6102f3600480360360208110156102e357600080fd5b50356001600160a01b0316611412565b604080519485526020850193909352838301919091526060830152519081900360800190f35b610197611649565b610329611918565b604080516001600160e01b03909316835263ffffffff90911660208301528051918290030190f35b61012d611936565b6002546001600160a01b031681565b806001600160a01b031663f851a4406040518163ffffffff1660e01b815260040160206040518083038186803b1580156103a157600080fd5b505afa1580156103b5573d6000803e3d6000fd5b505050506040513d60208110156103cb57600080fd5b50516001600160a01b031633146104135760405162461bcd60e51b81526004018080602001828103825260278152602001806120e16027913960400191505060405180910390fd5b806001600160a01b031663c1e803346040518163ffffffff1660e01b8152600401602060405180830381600087803b15801561044e57600080fd5b505af1158015610462573d6000803e3d6000fd5b505050506040513d602081101561047857600080fd5b5051156104c4576040805162461bcd60e51b815260206004820152601560248201527418da185b99d9481b9bdd08185d5d1a1bdc9a5e9959605a1b604482015290519081900360640190fd5b50565b60076020526000908152604090205481565b6001546001600160a01b031681565b6000806000600460009054906101000a90046001600160a01b03166001600160a01b0316637dc0d1d06040518163ffffffff1660e01b815260040160206040518083038186803b15801561053b57600080fd5b505afa15801561054f573d6000803e3d6000fd5b505050506040513d602081101561056557600080fd5b50516004805460408051632aff3bff60e21b81526001600160a01b03898116948201949094529051939450606093929091169163abfceffc91602480820192600092909190829003018186803b1580156105be57600080fd5b505afa1580156105d2573d6000803e3d6000fd5b505050506040513d6000823e601f3d908101601f1916820160405260208110156105fb57600080fd5b810190808051604051939291908464010000000082111561061b57600080fd5b90830190602082018581111561063057600080fd5b825186602082028301116401000000008211171561064d57600080fd5b82525081516020918201928201910280838360005b8381101561067a578181015183820152602001610662565b50505050905001604052505050905061069161203a565b60008080805b85518110156108fd578581815181106106ac57fe5b60200260200101516001600160a01b031663c37f68e28b6040518263ffffffff1660e01b815260040180826001600160a01b03166001600160a01b0316815260200191505060806040518083038186803b15801561070957600080fd5b505afa15801561071d573d6000803e3d6000fd5b505050506040513d608081101561073357600080fd5b5080516020820151604083015160609384015160a08a0152608089015291870191909152935083156107755760035b985060009750610b129650505050505050565b60405180602001604052808660a00151815250856101000181905250866001600160a01b031663fc57d4df8783815181106107ac57fe5b60200260200101516040518263ffffffff1660e01b815260040180826001600160a01b03166001600160a01b0316815260200191505060206040518083038186803b1580156107fa57600080fd5b505afa15801561080e573d6000803e3d6000fd5b505050506040513d602081101561082457600080fd5b505160c08601819052610838576004610762565b604080516020810190915260c08601518152610120860181905261010086015161086191611945565b6101408701529250600083600381111561087757fe5b14610883576005610762565b61089b85610140015186606001518760200151611a30565b6020870152925060008360038111156108b057fe5b146108bc576005610762565b6108d485610120015186608001518760400151611a30565b6040870152925060008360038111156108e957fe5b146108f5576005610762565b600101610697565b6040808601516004805483516315e3f14f60e11b81526001600160a01b038f8116938201939093529351610986949290911691632bc7e29e916024808301926020929190829003018186803b15801561095557600080fd5b505afa158015610969573d6000803e3d6000fd5b505050506040513d602081101561097f57600080fd5b5051611a8c565b60408701529250600083600381111561099b57fe5b146109a7576005610762565b610a2e8560200151600460009054906101000a90046001600160a01b03166001600160a01b031663bec04f726040518163ffffffff1660e01b815260040160206040518083038186803b1580156109fd57600080fd5b505afa158015610a11573d6000803e3d6000fd5b505050506040513d6020811015610a2757600080fd5b5051611ab2565b90935091506000836003811115610a4157fe5b14610a7d5760405162461bcd60e51b81526004018080602001828103825260228152602001806120bf6022913960400191505060405180910390fd5b610a8982612710611af1565b90935091506000836003811115610a9c57fe5b14610ad85760405162461bcd60e51b81526004018080602001828103825260228152602001806120bf6022913960400191505060405180910390fd5b610ae6828660400151611b1c565b90935091506000836003811115610af957fe5b14610b05576002610762565b5060009750955050505050505b915091565b4390565b600080546001600160a01b03163314610b4157610b3a60016002611b3f565b9050610ba6565b600480546001600160a01b038481166001600160a01b0319831681179093556040805191909216808252602082019390935281517f7ac369dbd14fa5ea3f473ed67cc9d598964a77501540ba6751eb0b3decf5870d929181900390910190a160009150505b919050565b6004546000906001600160a01b031615610ba657600480546040805163084bf5ab60e31b815290516001600160a01b039092169263425fad58928282019260209290829003018186803b158015610c0157600080fd5b505afa158015610c15573d6000803e3d6000fd5b505050506040513d6020811015610c2b57600080fd5b505115610c74576040805162461bcd60e51b81526020600482015260126024820152711c1c9bdd1bd8dbdb081a5cc81c185d5cd95960721b604482015290519081900360640190fd5b33610c7d611649565b506004805460408051632a0c046360e01b81526001600160a01b038581169482019490945260006024820181905291519390921692632a0c046392604480820193929182900301818387803b158015610cd557600080fd5b505af1158015610ce9573d6000803e3d6000fd5b50505050600080600080610cfc856104e8565b90945090508315610d165760025b95505050505050610ba6565b80871115610d2a57610d0a60026005611b3f565b60048054604080516315e3f14f60e11b81526001600160a01b03898116948201949094529051610db09390921691632bc7e29e91602480820192602092909190829003018186803b158015610d7e57600080fd5b505afa158015610d92573d6000803e3d6000fd5b505050506040513d6020811015610da857600080fd5b505188611a8c565b90935091506000836003811115610dc357fe5b14610dff5760405162461bcd60e51b81526004018080602001828103825260228152602001806120bf6022913960400191505060405180910390fd5b600480546040805163fd51a3ad60e01b81526001600160a01b03898116948201949094526024810186905290516000939092169163fd51a3ad9160448082019260209290919082900301818787803b158015610e5a57600080fd5b505af1158015610e6e573d6000803e3d6000fd5b505050506040513d6020811015610e8457600080fd5b505190508015610e9b579550610ba6945050505050565b610ea36113fa565b6001600160a01b03166340c10f19878a6040518363ffffffff1660e01b815260040180836001600160a01b03166001600160a01b0316815260200182815260200192505050600060405180830381600087803b158015610f0257600080fd5b505af1158015610f16573d6000803e3d6000fd5b5050604080516001600160a01b038a168152602081018c905281517e2e68ab1600fc5e7290e2ceaa79e2f86b4dbaca84a48421e167e0b40409218a9450908190039091019150a160009650505050505050610ba6565b600080546001600160a01b03163314610f8b57610b3a60016002611b3f565b60065460ff16610ba6576006805460ff1916600117905560008215610fb05782610fb8565b610fb8610b17565b905060405180604001604052806ec097ce7bc90715b34b9f10000000006001600160e01b0316815260200161101b8360405180604001604052806016815260200175626c6f636b206e756d626572206f766572666c6f777360501b815250611bac565b63ffffffff908116909152815160058054602090940151909216600160e01b026001600160e01b039182166001600160e01b0319909416939093171691909117905550919050565b6004546001600160a01b031681565b60065460ff1681565b6004546000906001600160a01b031615610ba657600480546040805163084bf5ab60e31b815290516001600160a01b039092169263425fad58928282019260209290829003018186803b1580156110d157600080fd5b505afa1580156110e5573d6000803e3d6000fd5b505050506040513d60208110156110fb57600080fd5b505115611144576040805162461bcd60e51b81526020600482015260126024820152711c1c9bdd1bd8dbdb081a5cc81c185d5cd95960721b604482015290519081900360640190fd5b3361114d611649565b506004805460408051632a0c046360e01b81526001600160a01b038581169482019490945260006024820181905291519390921692632a0c046392604480820193929182900301818387803b1580156111a557600080fd5b505af11580156111b9573d6000803e3d6000fd5b50505050600080600460009054906101000a90046001600160a01b03166001600160a01b0316632bc7e29e846040518263ffffffff1660e01b815260040180826001600160a01b03166001600160a01b0316815260200191505060206040518083038186803b15801561122b57600080fd5b505afa15801561123f573d6000803e3d6000fd5b505050506040513d602081101561125557600080fd5b50519050848111156112695784915061126d565b8091505b600480546040805163fd51a3ad60e01b81526001600160a01b0387811694820194909452858503602482015290516000939092169163fd51a3ad9160448082019260209290919082900301818787803b1580156112c957600080fd5b505af11580156112dd573d6000803e3d6000fd5b505050506040513d60208110156112f357600080fd5b505190508015611308579350610ba692505050565b6113106113fa565b6001600160a01b0316639dc29fac85856040518363ffffffff1660e01b815260040180836001600160a01b03166001600160a01b0316815260200182815260200192505050600060405180830381600087803b15801561136f57600080fd5b505af1158015611383573d6000803e3d6000fd5b5050604080516001600160a01b03881681526020810187905281517fd4a31707e3681a9b597321bfd1357488de9c7205d4195175b27e68b58a369d1e9450908190039091019150a16000945050505050610ba6565b6003546001600160a01b031681565b6ec097ce7bc90715b34b9f100000000081565b734bd17003473389a42daf6a0a729f6fdb328bbbd790565b6004546000908190819081906001600160a01b0316331461144a5761143960016002611b3f565b935060009250829150819050611642565b6114526120ab565b5060408051602081019091526005546001600160e01b031681526114746120ab565b5060408051602080820183526001600160a01b03891660008181526007808452948120805485528651929091529390915290915580511580156114b75750815115155b156114cf576ec097ce7bc90715b34b9f100000000081525b6114d76120ab565b6114e18383611c47565b90506000600460009054906101000a90046001600160a01b03166001600160a01b0316632bc7e29e8a6040518263ffffffff1660e01b815260040180826001600160a01b03166001600160a01b0316815260200191505060206040518083038186803b15801561155057600080fd5b505afa158015611564573d6000803e3d6000fd5b505050506040513d602081101561157a57600080fd5b50519050600061158a8284611c75565b9050600061162e600460009054906101000a90046001600160a01b03166001600160a01b0316638a7dc1658d6040518263ffffffff1660e01b815260040180826001600160a01b03166001600160a01b0316815260200191505060206040518083038186803b1580156115fc57600080fd5b505afa158015611610573d6000803e3d6000fd5b505050506040513d602081101561162657600080fd5b505183611ca4565b905060009551959950975095509293505050505b9193509193565b6004805460408051630e67320360e21b8152905160009384936001600160a01b03169263399cc80c9281830192602092829003018186803b15801561168d57600080fd5b505afa1580156116a1573d6000803e3d6000fd5b505050506040513d60208110156116b757600080fd5b5051905060006116c5610b17565b6005549091506000906116e6908390600160e01b900463ffffffff16611cda565b90506000811180156116f85750600083115b156118af5760006117076113fa565b6001600160a01b03166318160ddd6040518163ffffffff1660e01b815260040160206040518083038186803b15801561173f57600080fd5b505afa158015611753573d6000803e3d6000fd5b505050506040513d602081101561176957600080fd5b5051905060006117798386611d14565b90506117836120ab565b600083116117a057604051806020016040528060008152506117aa565b6117aa8284611d56565b90506117b46120ab565b60408051602081019091526005546001600160e01b031681526117d79083611d8b565b9050604051806040016040528061181d8360000151604051806040016040528060138152602001726e657720696e646578206f766572666c6f777360681b815250611db0565b6001600160e01b031681526020016118638860405180604001604052806016815260200175626c6f636b206e756d626572206f766572666c6f777360501b815250611bac565b63ffffffff908116909152815160058054602090940151909216600160e01b026001600160e01b039182166001600160e01b031990941693909317169190911790555061191292505050565b8015611912576118ed8260405180604001604052806016815260200175626c6f636b206e756d626572206f766572666c6f777360501b815250611bac565b6005805463ffffffff92909216600160e01b026001600160e01b039092169190911790555b50505090565b6005546001600160e01b03811690600160e01b900463ffffffff1682565b6000546001600160a01b031681565b600061194f6120ab565b60008061196486600001518660000151611ab2565b9092509050600082600381111561197757fe5b1461199657506040805160208101909152600081529092509050611a29565b6000806119ab6706f05b59d3b2000084611a8c565b909250905060008260038111156119be57fe5b146119e057506040805160208101909152600081529094509250611a29915050565b6000806119f583670de0b6b3a7640000611af1565b90925090506000826003811115611a0857fe5b14611a0f57fe5b604080516020810190915290815260009750955050505050505b9250929050565b6000806000611a3d6120ab565b611a478787611e05565b90925090506000826003811115611a5a57fe5b14611a6b5750915060009050611a84565b611a7d611a7782611e6d565b86611a8c565b9350935050505b935093915050565b600080838301848110611aa457600092509050611a29565b506002915060009050611a29565b60008083611ac557506000905080611a29565b83830283858281611ad257fe5b0414611ae657506002915060009050611a29565b600092509050611a29565b60008082611b055750600190506000611a29565b6000838581611b1057fe5b04915091509250929050565b600080838311611b33575060009050818303611a29565b50600390506000611a29565b60007f45b96fe442630264581b197e84bbada861235052c5a1aadfff9ea4e40a969aa0836006811115611b6e57fe5b836017811115611b7a57fe5b604080519283526020830191909152600082820152519081900360600190a1826006811115611ba557fe5b9392505050565b6000816401000000008410611c3f5760405162461bcd60e51b81526004018080602001828103825283818151815260200191508051906020019080838360005b83811015611c04578181015183820152602001611bec565b50505050905090810190601f168015611c315780820380516001836020036101000a031916815260200191505b509250505060405180910390fd5b509192915050565b611c4f6120ab565b6040518060200160405280611c6c85600001518560000151611cda565b90529392505050565b60006ec097ce7bc90715b34b9f1000000000611c95848460000151611d14565b81611c9c57fe5b049392505050565b6000611ba58383604051806040016040528060118152602001706164646974696f6e206f766572666c6f7760781b815250611e7c565b6000611ba58383604051806040016040528060158152602001747375627472616374696f6e20756e646572666c6f7760581b815250611eda565b6000611ba583836040518060400160405280601781526020017f6d756c7469706c69636174696f6e206f766572666c6f77000000000000000000815250611f34565b611d5e6120ab565b6040518060200160405280611c6c611d85866ec097ce7bc90715b34b9f1000000000611d14565b85611faa565b611d936120ab565b6040518060200160405280611c6c85600001518560000151611ca4565b600081600160e01b8410611c3f5760405162461bcd60e51b8152602060048201818152835160248401528351909283926044909101919085019080838360008315611c04578181015183820152602001611bec565b6000611e0f6120ab565b600080611e20866000015186611ab2565b90925090506000826003811115611e3357fe5b14611e5257506040805160208101909152600081529092509050611a29565b60408051602081019091529081526000969095509350505050565b51670de0b6b3a7640000900490565b60008383018285821015611ed15760405162461bcd60e51b8152602060048201818152835160248401528351909283926044909101919085019080838360008315611c04578181015183820152602001611bec565b50949350505050565b60008184841115611f2c5760405162461bcd60e51b8152602060048201818152835160248401528351909283926044909101919085019080838360008315611c04578181015183820152602001611bec565b505050900390565b6000831580611f41575082155b15611f4e57506000611ba5565b83830283858281611f5b57fe5b04148390611ed15760405162461bcd60e51b8152602060048201818152835160248401528351909283926044909101919085019080838360008315611c04578181015183820152602001611bec565b6000611ba583836040518060400160405280600e81526020016d646976696465206279207a65726f60901b815250600081836120275760405162461bcd60e51b8152602060048201818152835160248401528351909283926044909101919085019080838360008315611c04578181015183820152602001611bec565b5082848161203157fe5b04949350505050565b6040518061016001604052806000815260200160008152602001600081526020016000815260200160008152602001600081526020016000815260200161207f6120ab565b815260200161208c6120ab565b81526020016120996120ab565b81526020016120a66120ab565b905290565b604051806020016040528060008152509056fe5641495f4d494e545f414d4f554e545f43414c43554c4154494f4e5f4641494c45446f6e6c7920756e6974726f6c6c65722061646d696e2063616e206368616e676520627261696e73a265627a7a723158206d274a6d9bc8070036a6b298aa784856f2383aaef262b05283caaa370afbf86d64736f6c63430005110032",
			"opcodes": "PUSH1 0x80 PUSH1 0x40 MSTORE PUSH1 0x0 DUP1 SLOAD PUSH1 0x1 PUSH1 0x1 PUSH1 0xA0 SHL SUB NOT AND PUSH20 0x931F176BEE590F13CA2B9D163C135F065C7A22CC OR SWAP1 SSTORE CALLVALUE DUP1 ISZERO PUSH2 0x36 JUMPI PUSH1 0x0 DUP1 REVERT JUMPDEST POP PUSH2 0x213C DUP1 PUSH2 0x46 PUSH1 0x0 CODECOPY PUSH1 0x0 RETURN INVALID PUSH1 0x80 PUSH1 0x40 MSTORE CALLVALUE DUP1 ISZERO PUSH2 0x10 JUMPI PUSH1 0x0 DUP1 REVERT JUMPDEST POP PUSH1 0x4 CALLDATASIZE LT PUSH2 0x120 JUMPI PUSH1 0x0 CALLDATALOAD PUSH1 0xE0 SHR DUP1 PUSH4 0x5FE3B567 GT PUSH2 0xAD JUMPI DUP1 PUSH4 0xCBEB2B28 GT PUSH2 0x71 JUMPI DUP1 PUSH4 0xCBEB2B28 EQ PUSH2 0x2C5 JUMPI DUP1 PUSH4 0xD178273B EQ PUSH2 0x2CD JUMPI DUP1 PUSH4 0xD244B081 EQ PUSH2 0x319 JUMPI DUP1 PUSH4 0xE44E6168 EQ PUSH2 0x321 JUMPI DUP1 PUSH4 0xF851A440 EQ PUSH2 0x351 JUMPI PUSH2 0x120 JUMP JUMPDEST DUP1 PUSH4 0x5FE3B567 EQ PUSH2 0x258 JUMPI DUP1 PUSH4 0x60C954EF EQ PUSH2 0x260 JUMPI DUP1 PUSH4 0x6FE74A21 EQ PUSH2 0x27C JUMPI DUP1 PUSH4 0xB06BB426 EQ PUSH2 0x299 JUMPI DUP1 PUSH4 0xC5B4DB55 EQ PUSH2 0x2A1 JUMPI PUSH2 0x120 JUMP JUMPDEST DUP1 PUSH4 0x3785D1D6 GT PUSH2 0xF4 JUMPI DUP1 PUSH4 0x3785D1D6 EQ PUSH2 0x1B1 JUMPI DUP1 PUSH4 0x42CBB15C EQ PUSH2 0x1F0 JUMPI DUP1 PUSH4 0x4576B5DB EQ PUSH2 0x1F8 JUMPI DUP1 PUSH4 0x4712EE7D EQ PUSH2 0x21E JUMPI DUP1 PUSH4 0x5035920A EQ PUSH2 0x23B JUMPI PUSH2 0x120 JUMP JUMPDEST DUP1 PUSH3 0x3B5884 EQ PUSH2 0x125 JUMPI DUP1 PUSH4 0x1D504DC6 EQ PUSH2 0x149 JUMPI DUP1 PUSH4 0x24650602 EQ PUSH2 0x171 JUMPI DUP1 PUSH4 0x26782247 EQ PUSH2 0x1A9 JUMPI JUMPDEST PUSH1 0x0 DUP1 REVERT JUMPDEST PUSH2 0x12D PUSH2 0x359 JUMP JUMPDEST PUSH1 0x40 DUP1 MLOAD PUSH1 0x1 PUSH1 0x1 PUSH1 0xA0 SHL SUB SWAP1 SWAP3 AND DUP3 MSTORE MLOAD SWAP1 DUP2 SWAP1 SUB PUSH1 0x20 ADD SWAP1 RETURN JUMPDEST PUSH2 0x16F PUSH1 0x4 DUP1 CALLDATASIZE SUB PUSH1 0x20 DUP2 LT ISZERO PUSH2 0x15F JUMPI PUSH1 0x0 DUP1 REVERT JUMPDEST POP CALLDATALOAD PUSH1 0x1 PUSH1 0x1 PUSH1 0xA0 SHL SUB AND PUSH2 0x368 JUMP JUMPDEST STOP JUMPDEST PUSH2 0x197 PUSH1 0x4 DUP1 CALLDATASIZE SUB PUSH1 0x20 DUP2 LT ISZERO PUSH2 0x187 JUMPI PUSH1 0x0 DUP1 REVERT JUMPDEST POP CALLDATALOAD PUSH1 0x1 PUSH1 0x1 PUSH1 0xA0 SHL SUB AND PUSH2 0x4C7 JUMP JUMPDEST PUSH1 0x40 DUP1 MLOAD SWAP2 DUP3 MSTORE MLOAD SWAP1 DUP2 SWAP1 SUB PUSH1 0x20 ADD SWAP1 RETURN JUMPDEST PUSH2 0x12D PUSH2 0x4D9 JUMP JUMPDEST PUSH2 0x1D7 PUSH1 0x4 DUP1 CALLDATASIZE SUB PUSH1 0x20 DUP2 LT ISZERO PUSH2 0x1C7 JUMPI PUSH1 0x0 DUP1 REVERT JUMPDEST POP CALLDATALOAD PUSH1 0x1 PUSH1 0x1 PUSH1 0xA0 SHL SUB AND PUSH2 0x4E8 JUMP JUMPDEST PUSH1 0x40 DUP1 MLOAD SWAP3 DUP4 MSTORE PUSH1 0x20 DUP4 ADD SWAP2 SWAP1 SWAP2 MSTORE DUP1 MLOAD SWAP2 DUP3 SWAP1 SUB ADD SWAP1 RETURN JUMPDEST PUSH2 0x197 PUSH2 0xB17 JUMP JUMPDEST PUSH2 0x197 PUSH1 0x4 DUP1 CALLDATASIZE SUB PUSH1 0x20 DUP2 LT ISZERO PUSH2 0x20E JUMPI PUSH1 0x0 DUP1 REVERT JUMPDEST POP CALLDATALOAD PUSH1 0x1 PUSH1 0x1 PUSH1 0xA0 SHL SUB AND PUSH2 0xB1B JUMP JUMPDEST PUSH2 0x197 PUSH1 0x4 DUP1 CALLDATASIZE SUB PUSH1 0x20 DUP2 LT ISZERO PUSH2 0x234 JUMPI PUSH1 0x0 DUP1 REVERT JUMPDEST POP CALLDATALOAD PUSH2 0xBAB JUMP JUMPDEST PUSH2 0x197 PUSH1 0x4 DUP1 CALLDATASIZE SUB PUSH1 0x20 DUP2 LT ISZERO PUSH2 0x251 JUMPI PUSH1 0x0 DUP1 REVERT JUMPDEST POP CALLDATALOAD PUSH2 0xF6C JUMP JUMPDEST PUSH2 0x12D PUSH2 0x1063 JUMP JUMPDEST PUSH2 0x268 PUSH2 0x1072 JUMP JUMPDEST PUSH1 0x40 DUP1 MLOAD SWAP2 ISZERO ISZERO DUP3 MSTORE MLOAD SWAP1 DUP2 SWAP1 SUB PUSH1 0x20 ADD SWAP1 RETURN JUMPDEST PUSH2 0x197 PUSH1 0x4 DUP1 CALLDATASIZE SUB PUSH1 0x20 DUP2 LT ISZERO PUSH2 0x292 JUMPI PUSH1 0x0 DUP1 REVERT JUMPDEST POP CALLDATALOAD PUSH2 0x107B JUMP JUMPDEST PUSH2 0x12D PUSH2 0x13D8 JUMP JUMPDEST PUSH2 0x2A9 PUSH2 0x13E7 JUMP JUMPDEST PUSH1 0x40 DUP1 MLOAD PUSH1 0x1 PUSH1 0x1 PUSH1 0xE0 SHL SUB SWAP1 SWAP3 AND DUP3 MSTORE MLOAD SWAP1 DUP2 SWAP1 SUB PUSH1 0x20 ADD SWAP1 RETURN JUMPDEST PUSH2 0x12D PUSH2 0x13FA JUMP JUMPDEST PUSH2 0x2F3 PUSH1 0x4 DUP1 CALLDATASIZE SUB PUSH1 0x20 DUP2 LT ISZERO PUSH2 0x2E3 JUMPI PUSH1 0x0 DUP1 REVERT JUMPDEST POP CALLDATALOAD PUSH1 0x1 PUSH1 0x1 PUSH1 0xA0 SHL SUB AND PUSH2 0x1412 JUMP JUMPDEST PUSH1 0x40 DUP1 MLOAD SWAP5 DUP6 MSTORE PUSH1 0x20 DUP6 ADD SWAP4 SWAP1 SWAP4 MSTORE DUP4 DUP4 ADD SWAP2 SWAP1 SWAP2 MSTORE PUSH1 0x60 DUP4 ADD MSTORE MLOAD SWAP1 DUP2 SWAP1 SUB PUSH1 0x80 ADD SWAP1 RETURN JUMPDEST PUSH2 0x197 PUSH2 0x1649 JUMP JUMPDEST PUSH2 0x329 PUSH2 0x1918 JUMP JUMPDEST PUSH1 0x40 DUP1 MLOAD PUSH1 0x1 PUSH1 0x1 PUSH1 0xE0 SHL SUB SWAP1 SWAP4 AND DUP4 MSTORE PUSH4 0xFFFFFFFF SWAP1 SWAP2 AND PUSH1 0x20 DUP4 ADD MSTORE DUP1 MLOAD SWAP2 DUP3 SWAP1 SUB ADD SWAP1 RETURN JUMPDEST PUSH2 0x12D PUSH2 0x1936 JUMP JUMPDEST PUSH1 0x2 SLOAD PUSH1 0x1 PUSH1 0x1 PUSH1 0xA0 SHL SUB AND DUP2 JUMP JUMPDEST DUP1 PUSH1 0x1 PUSH1 0x1 PUSH1 0xA0 SHL SUB AND PUSH4 0xF851A440 PUSH1 0x40 MLOAD DUP2 PUSH4 0xFFFFFFFF AND PUSH1 0xE0 SHL DUP2 MSTORE PUSH1 0x4 ADD PUSH1 0x20 PUSH1 0x40 MLOAD DUP1 DUP4 SUB DUP2 DUP7 DUP1 EXTCODESIZE ISZERO DUP1 ISZERO PUSH2 0x3A1 JUMPI PUSH1 0x0 DUP1 REVERT JUMPDEST POP GAS STATICCALL ISZERO DUP1 ISZERO PUSH2 0x3B5 JUMPI RETURNDATASIZE PUSH1 0x0 DUP1 RETURNDATACOPY RETURNDATASIZE PUSH1 0x0 REVERT JUMPDEST POP POP POP POP PUSH1 0x40 MLOAD RETURNDATASIZE PUSH1 0x20 DUP2 LT ISZERO PUSH2 0x3CB JUMPI PUSH1 0x0 DUP1 REVERT JUMPDEST POP MLOAD PUSH1 0x1 PUSH1 0x1 PUSH1 0xA0 SHL SUB AND CALLER EQ PUSH2 0x413 JUMPI PUSH1 0x40 MLOAD PUSH3 0x461BCD PUSH1 0xE5 SHL DUP2 MSTORE PUSH1 0x4 ADD DUP1 DUP1 PUSH1 0x20 ADD DUP3 DUP2 SUB DUP3 MSTORE PUSH1 0x27 DUP2 MSTORE PUSH1 0x20 ADD DUP1 PUSH2 0x20E1 PUSH1 0x27 SWAP2 CODECOPY PUSH1 0x40 ADD SWAP2 POP POP PUSH1 0x40 MLOAD DUP1 SWAP2 SUB SWAP1 REVERT JUMPDEST DUP1 PUSH1 0x1 PUSH1 0x1 PUSH1 0xA0 SHL SUB AND PUSH4 0xC1E80334 PUSH1 0x40 MLOAD DUP2 PUSH4 0xFFFFFFFF AND PUSH1 0xE0 SHL DUP2 MSTORE PUSH1 0x4 ADD PUSH1 0x20 PUSH1 0x40 MLOAD DUP1 DUP4 SUB DUP2 PUSH1 0x0 DUP8 DUP1 EXTCODESIZE ISZERO DUP1 ISZERO PUSH2 0x44E JUMPI PUSH1 0x0 DUP1 REVERT JUMPDEST POP GAS CALL ISZERO DUP1 ISZERO PUSH2 0x462 JUMPI RETURNDATASIZE PUSH1 0x0 DUP1 RETURNDATACOPY RETURNDATASIZE PUSH1 0x0 REVERT JUMPDEST POP POP POP POP PUSH1 0x40 MLOAD RETURNDATASIZE PUSH1 0x20 DUP2 LT ISZERO PUSH2 0x478 JUMPI PUSH1 0x0 DUP1 REVERT JUMPDEST POP MLOAD ISZERO PUSH2 0x4C4 JUMPI PUSH1 0x40 DUP1 MLOAD PUSH3 0x461BCD PUSH1 0xE5 SHL DUP2 MSTORE PUSH1 0x20 PUSH1 0x4 DUP3 ADD MSTORE PUSH1 0x15 PUSH1 0x24 DUP3 ADD MSTORE PUSH21 0x18DA185B99D9481B9BDD08185D5D1A1BDC9A5E9959 PUSH1 0x5A SHL PUSH1 0x44 DUP3 ADD MSTORE SWAP1 MLOAD SWAP1 DUP2 SWAP1 SUB PUSH1 0x64 ADD SWAP1 REVERT JUMPDEST POP JUMP JUMPDEST PUSH1 0x7 PUSH1 0x20 MSTORE PUSH1 0x0 SWAP1 DUP2 MSTORE PUSH1 0x40 SWAP1 KECCAK256 SLOAD DUP2 JUMP JUMPDEST PUSH1 0x1 SLOAD PUSH1 0x1 PUSH1 0x1 PUSH1 0xA0 SHL SUB AND DUP2 JUMP JUMPDEST PUSH1 0x0 DUP1 PUSH1 0x0 PUSH1 0x4 PUSH1 0x0 SWAP1 SLOAD SWAP1 PUSH2 0x100 EXP SWAP1 DIV PUSH1 0x1 PUSH1 0x1 PUSH1 0xA0 SHL SUB AND PUSH1 0x1 PUSH1 0x1 PUSH1 0xA0 SHL SUB AND PUSH4 0x7DC0D1D0 PUSH1 0x40 MLOAD DUP2 PUSH4 0xFFFFFFFF AND PUSH1 0xE0 SHL DUP2 MSTORE PUSH1 0x4 ADD PUSH1 0x20 PUSH1 0x40 MLOAD DUP1 DUP4 SUB DUP2 DUP7 DUP1 EXTCODESIZE ISZERO DUP1 ISZERO PUSH2 0x53B JUMPI PUSH1 0x0 DUP1 REVERT JUMPDEST POP GAS STATICCALL ISZERO DUP1 ISZERO PUSH2 0x54F JUMPI RETURNDATASIZE PUSH1 0x0 DUP1 RETURNDATACOPY RETURNDATASIZE PUSH1 0x0 REVERT JUMPDEST POP POP POP POP PUSH1 0x40 MLOAD RETURNDATASIZE PUSH1 0x20 DUP2 LT ISZERO PUSH2 0x565 JUMPI PUSH1 0x0 DUP1 REVERT JUMPDEST POP MLOAD PUSH1 0x4 DUP1 SLOAD PUSH1 0x40 DUP1 MLOAD PUSH4 0x2AFF3BFF PUSH1 0xE2 SHL DUP2 MSTORE PUSH1 0x1 PUSH1 0x1 PUSH1 0xA0 SHL SUB DUP10 DUP2 AND SWAP5 DUP3 ADD SWAP5 SWAP1 SWAP5 MSTORE SWAP1 MLOAD SWAP4 SWAP5 POP PUSH1 0x60 SWAP4 SWAP3 SWAP1 SWAP2 AND SWAP2 PUSH4 0xABFCEFFC SWAP2 PUSH1 0x24 DUP1 DUP3 ADD SWAP3 PUSH1 0x0 SWAP3 SWAP1 SWAP2 SWAP1 DUP3 SWAP1 SUB ADD DUP2 DUP7 DUP1 EXTCODESIZE ISZERO DUP1 ISZERO PUSH2 0x5BE JUMPI PUSH1 0x0 DUP1 REVERT JUMPDEST POP GAS STATICCALL ISZERO DUP1 ISZERO PUSH2 0x5D2 JUMPI RETURNDATASIZE PUSH1 0x0 DUP1 RETURNDATACOPY RETURNDATASIZE PUSH1 0x0 REVERT JUMPDEST POP POP POP POP PUSH1 0x40 MLOAD RETURNDATASIZE PUSH1 0x0 DUP3 RETURNDATACOPY PUSH1 0x1F RETURNDATASIZE SWAP1 DUP2 ADD PUSH1 0x1F NOT AND DUP3 ADD PUSH1 0x40 MSTORE PUSH1 0x20 DUP2 LT ISZERO PUSH2 0x5FB JUMPI PUSH1 0x0 DUP1 REVERT JUMPDEST DUP2 ADD SWAP1 DUP1 DUP1 MLOAD PUSH1 0x40 MLOAD SWAP4 SWAP3 SWAP2 SWAP1 DUP5 PUSH5 0x100000000 DUP3 GT ISZERO PUSH2 0x61B JUMPI PUSH1 0x0 DUP1 REVERT JUMPDEST SWAP1 DUP4 ADD SWAP1 PUSH1 0x20 DUP3 ADD DUP6 DUP2 GT ISZERO PUSH2 0x630 JUMPI PUSH1 0x0 DUP1 REVERT JUMPDEST DUP3 MLOAD DUP7 PUSH1 0x20 DUP3 MUL DUP4 ADD GT PUSH5 0x100000000 DUP3 GT OR ISZERO PUSH2 0x64D JUMPI PUSH1 0x0 DUP1 REVERT JUMPDEST DUP3 MSTORE POP DUP2 MLOAD PUSH1 0x20 SWAP2 DUP3 ADD SWAP3 DUP3 ADD SWAP2 MUL DUP1 DUP4 DUP4 PUSH1 0x0 JUMPDEST DUP4 DUP2 LT ISZERO PUSH2 0x67A JUMPI DUP2 DUP2 ADD MLOAD DUP4 DUP3 ADD MSTORE PUSH1 0x20 ADD PUSH2 0x662 JUMP JUMPDEST POP POP POP POP SWAP1 POP ADD PUSH1 0x40 MSTORE POP POP POP SWAP1 POP PUSH2 0x691 PUSH2 0x203A JUMP JUMPDEST PUSH1 0x0 DUP1 DUP1 DUP1 JUMPDEST DUP6 MLOAD DUP2 LT ISZERO PUSH2 0x8FD JUMPI DUP6 DUP2 DUP2 MLOAD DUP2 LT PUSH2 0x6AC JUMPI INVALID JUMPDEST PUSH1 0x20 MUL PUSH1 0x20 ADD ADD MLOAD PUSH1 0x1 PUSH1 0x1 PUSH1 0xA0 SHL SUB AND PUSH4 0xC37F68E2 DUP12 PUSH1 0x40 MLOAD DUP3 PUSH4 0xFFFFFFFF AND PUSH1 0xE0 SHL DUP2 MSTORE PUSH1 0x4 ADD DUP1 DUP3 PUSH1 0x1 PUSH1 0x1 PUSH1 0xA0 SHL SUB AND PUSH1 0x1 PUSH1 0x1 PUSH1 0xA0 SHL SUB AND DUP2 MSTORE PUSH1 0x20 ADD SWAP2 POP POP PUSH1 0x80 PUSH1 0x40 MLOAD DUP1 DUP4 SUB DUP2 DUP7 DUP1 EXTCODESIZE ISZERO DUP1 ISZERO PUSH2 0x709 JUMPI PUSH1 0x0 DUP1 REVERT JUMPDEST POP GAS STATICCALL ISZERO DUP1 ISZERO PUSH2 0x71D JUMPI RETURNDATASIZE PUSH1 0x0 DUP1 RETURNDATACOPY RETURNDATASIZE PUSH1 0x0 REVERT JUMPDEST POP POP POP POP PUSH1 0x40 MLOAD RETURNDATASIZE PUSH1 0x80 DUP2 LT ISZERO PUSH2 0x733 JUMPI PUSH1 0x0 DUP1 REVERT JUMPDEST POP DUP1 MLOAD PUSH1 0x20 DUP3 ADD MLOAD PUSH1 0x40 DUP4 ADD MLOAD PUSH1 0x60 SWAP4 DUP5 ADD MLOAD PUSH1 0xA0 DUP11 ADD MSTORE PUSH1 0x80 DUP10 ADD MSTORE SWAP2 DUP8 ADD SWAP2 SWAP1 SWAP2 MSTORE SWAP4 POP DUP4 ISZERO PUSH2 0x775 JUMPI PUSH1 0x3 JUMPDEST SWAP9 POP PUSH1 0x0 SWAP8 POP PUSH2 0xB12 SWAP7 POP POP POP POP POP POP POP JUMP JUMPDEST PUSH1 0x40 MLOAD DUP1 PUSH1 0x20 ADD PUSH1 0x40 MSTORE DUP1 DUP7 PUSH1 0xA0 ADD MLOAD DUP2 MSTORE POP DUP6 PUSH2 0x100 ADD DUP2 SWAP1 MSTORE POP DUP7 PUSH1 0x1 PUSH1 0x1 PUSH1 0xA0 SHL SUB AND PUSH4 0xFC57D4DF DUP8 DUP4 DUP2 MLOAD DUP2 LT PUSH2 0x7AC JUMPI INVALID JUMPDEST PUSH1 0x20 MUL PUSH1 0x20 ADD ADD MLOAD PUSH1 0x40 MLOAD DUP3 PUSH4 0xFFFFFFFF AND PUSH1 0xE0 SHL DUP2 MSTORE PUSH1 0x4 ADD DUP1 DUP3 PUSH1 0x1 PUSH1 0x1 PUSH1 0xA0 SHL SUB AND PUSH1 0x1 PUSH1 0x1 PUSH1 0xA0 SHL SUB AND DUP2 MSTORE PUSH1 0x20 ADD SWAP2 POP POP PUSH1 0x20 PUSH1 0x40 MLOAD DUP1 DUP4 SUB DUP2 DUP7 DUP1 EXTCODESIZE ISZERO DUP1 ISZERO PUSH2 0x7FA JUMPI PUSH1 0x0 DUP1 REVERT JUMPDEST POP GAS STATICCALL ISZERO DUP1 ISZERO PUSH2 0x80E JUMPI RETURNDATASIZE PUSH1 0x0 DUP1 RETURNDATACOPY RETURNDATASIZE PUSH1 0x0 REVERT JUMPDEST POP POP POP POP PUSH1 0x40 MLOAD RETURNDATASIZE PUSH1 0x20 DUP2 LT ISZERO PUSH2 0x824 JUMPI PUSH1 0x0 DUP1 REVERT JUMPDEST POP MLOAD PUSH1 0xC0 DUP7 ADD DUP2 SWAP1 MSTORE PUSH2 0x838 JUMPI PUSH1 0x4 PUSH2 0x762 JUMP JUMPDEST PUSH1 0x40 DUP1 MLOAD PUSH1 0x20 DUP2 ADD SWAP1 SWAP2 MSTORE PUSH1 0xC0 DUP7 ADD MLOAD DUP2 MSTORE PUSH2 0x120 DUP7 ADD DUP2 SWAP1 MSTORE PUSH2 0x100 DUP7 ADD MLOAD PUSH2 0x861 SWAP2 PUSH2 0x1945 JUMP JUMPDEST PUSH2 0x140 DUP8 ADD MSTORE SWAP3 POP PUSH1 0x0 DUP4 PUSH1 0x3 DUP2 GT ISZERO PUSH2 0x877 JUMPI INVALID JUMPDEST EQ PUSH2 0x883 JUMPI PUSH1 0x5 PUSH2 0x762 JUMP JUMPDEST PUSH2 0x89B DUP6 PUSH2 0x140 ADD MLOAD DUP7 PUSH1 0x60 ADD MLOAD DUP8 PUSH1 0x20 ADD MLOAD PUSH2 0x1A30 JUMP JUMPDEST PUSH1 0x20 DUP8 ADD MSTORE SWAP3 POP PUSH1 0x0 DUP4 PUSH1 0x3 DUP2 GT ISZERO PUSH2 0x8B0 JUMPI INVALID JUMPDEST EQ PUSH2 0x8BC JUMPI PUSH1 0x5 PUSH2 0x762 JUMP JUMPDEST PUSH2 0x8D4 DUP6 PUSH2 0x120 ADD MLOAD DUP7 PUSH1 0x80 ADD MLOAD DUP8 PUSH1 0x40 ADD MLOAD PUSH2 0x1A30 JUMP JUMPDEST PUSH1 0x40 DUP8 ADD MSTORE SWAP3 POP PUSH1 0x0 DUP4 PUSH1 0x3 DUP2 GT ISZERO PUSH2 0x8E9 JUMPI INVALID JUMPDEST EQ PUSH2 0x8F5 JUMPI PUSH1 0x5 PUSH2 0x762 JUMP JUMPDEST PUSH1 0x1 ADD PUSH2 0x697 JUMP JUMPDEST PUSH1 0x40 DUP1 DUP7 ADD MLOAD PUSH1 0x4 DUP1 SLOAD DUP4 MLOAD PUSH4 0x15E3F14F PUSH1 0xE1 SHL DUP2 MSTORE PUSH1 0x1 PUSH1 0x1 PUSH1 0xA0 SHL SUB DUP16 DUP2 AND SWAP4 DUP3 ADD SWAP4 SWAP1 SWAP4 MSTORE SWAP4 MLOAD PUSH2 0x986 SWAP5 SWAP3 SWAP1 SWAP2 AND SWAP2 PUSH4 0x2BC7E29E SWAP2 PUSH1 0x24 DUP1 DUP4 ADD SWAP3 PUSH1 0x20 SWAP3 SWAP2 SWAP1 DUP3 SWAP1 SUB ADD DUP2 DUP7 DUP1 EXTCODESIZE ISZERO DUP1 ISZERO PUSH2 0x955 JUMPI PUSH1 0x0 DUP1 REVERT JUMPDEST POP GAS STATICCALL ISZERO DUP1 ISZERO PUSH2 0x969 JUMPI RETURNDATASIZE PUSH1 0x0 DUP1 RETURNDATACOPY RETURNDATASIZE PUSH1 0x0 REVERT JUMPDEST POP POP POP POP PUSH1 0x40 MLOAD RETURNDATASIZE PUSH1 0x20 DUP2 LT ISZERO PUSH2 0x97F JUMPI PUSH1 0x0 DUP1 REVERT JUMPDEST POP MLOAD PUSH2 0x1A8C JUMP JUMPDEST PUSH1 0x40 DUP8 ADD MSTORE SWAP3 POP PUSH1 0x0 DUP4 PUSH1 0x3 DUP2 GT ISZERO PUSH2 0x99B JUMPI INVALID JUMPDEST EQ PUSH2 0x9A7 JUMPI PUSH1 0x5 PUSH2 0x762 JUMP JUMPDEST PUSH2 0xA2E DUP6 PUSH1 0x20 ADD MLOAD PUSH1 0x4 PUSH1 0x0 SWAP1 SLOAD SWAP1 PUSH2 0x100 EXP SWAP1 DIV PUSH1 0x1 PUSH1 0x1 PUSH1 0xA0 SHL SUB AND PUSH1 0x1 PUSH1 0x1 PUSH1 0xA0 SHL SUB AND PUSH4 0xBEC04F72 PUSH1 0x40 MLOAD DUP2 PUSH4 0xFFFFFFFF AND PUSH1 0xE0 SHL DUP2 MSTORE PUSH1 0x4 ADD PUSH1 0x20 PUSH1 0x40 MLOAD DUP1 DUP4 SUB DUP2 DUP7 DUP1 EXTCODESIZE ISZERO DUP1 ISZERO PUSH2 0x9FD JUMPI PUSH1 0x0 DUP1 REVERT JUMPDEST POP GAS STATICCALL ISZERO DUP1 ISZERO PUSH2 0xA11 JUMPI RETURNDATASIZE PUSH1 0x0 DUP1 RETURNDATACOPY RETURNDATASIZE PUSH1 0x0 REVERT JUMPDEST POP POP POP POP PUSH1 0x40 MLOAD RETURNDATASIZE PUSH1 0x20 DUP2 LT ISZERO PUSH2 0xA27 JUMPI PUSH1 0x0 DUP1 REVERT JUMPDEST POP MLOAD PUSH2 0x1AB2 JUMP JUMPDEST SWAP1 SWAP4 POP SWAP2 POP PUSH1 0x0 DUP4 PUSH1 0x3 DUP2 GT ISZERO PUSH2 0xA41 JUMPI INVALID JUMPDEST EQ PUSH2 0xA7D JUMPI PUSH1 0x40 MLOAD PUSH3 0x461BCD PUSH1 0xE5 SHL DUP2 MSTORE PUSH1 0x4 ADD DUP1 DUP1 PUSH1 0x20 ADD DUP3 DUP2 SUB DUP3 MSTORE PUSH1 0x22 DUP2 MSTORE PUSH1 0x20 ADD DUP1 PUSH2 0x20BF PUSH1 0x22 SWAP2 CODECOPY PUSH1 0x40 ADD SWAP2 POP POP PUSH1 0x40 MLOAD DUP1 SWAP2 SUB SWAP1 REVERT JUMPDEST PUSH2 0xA89 DUP3 PUSH2 0x2710 PUSH2 0x1AF1 JUMP JUMPDEST SWAP1 SWAP4 POP SWAP2 POP PUSH1 0x0 DUP4 PUSH1 0x3 DUP2 GT ISZERO PUSH2 0xA9C JUMPI INVALID JUMPDEST EQ PUSH2 0xAD8 JUMPI PUSH1 0x40 MLOAD PUSH3 0x461BCD PUSH1 0xE5 SHL DUP2 MSTORE PUSH1 0x4 ADD DUP1 DUP1 PUSH1 0x20 ADD DUP3 DUP2 SUB DUP3 MSTORE PUSH1 0x22 DUP2 MSTORE PUSH1 0x20 ADD DUP1 PUSH2 0x20BF PUSH1 0x22 SWAP2 CODECOPY PUSH1 0x40 ADD SWAP2 POP POP PUSH1 0x40 MLOAD DUP1 SWAP2 SUB SWAP1 REVERT JUMPDEST PUSH2 0xAE6 DUP3 DUP7 PUSH1 0x40 ADD MLOAD PUSH2 0x1B1C JUMP JUMPDEST SWAP1 SWAP4 POP SWAP2 POP PUSH1 0x0 DUP4 PUSH1 0x3 DUP2 GT ISZERO PUSH2 0xAF9 JUMPI INVALID JUMPDEST EQ PUSH2 0xB05 JUMPI PUSH1 0x2 PUSH2 0x762 JUMP JUMPDEST POP PUSH1 0x0 SWAP8 POP SWAP6 POP POP POP POP POP POP JUMPDEST SWAP2 POP SWAP2 JUMP JUMPDEST NUMBER SWAP1 JUMP JUMPDEST PUSH1 0x0 DUP1 SLOAD PUSH1 0x1 PUSH1 0x1 PUSH1 0xA0 SHL SUB AND CALLER EQ PUSH2 0xB41 JUMPI PUSH2 0xB3A PUSH1 0x1 PUSH1 0x2 PUSH2 0x1B3F JUMP JUMPDEST SWAP1 POP PUSH2 0xBA6 JUMP JUMPDEST PUSH1 0x4 DUP1 SLOAD PUSH1 0x1 PUSH1 0x1 PUSH1 0xA0 SHL SUB DUP5 DUP2 AND PUSH1 0x1 PUSH1 0x1 PUSH1 0xA0 SHL SUB NOT DUP4 AND DUP2 OR SWAP1 SWAP4 SSTORE PUSH1 0x40 DUP1 MLOAD SWAP2 SWAP1 SWAP3 AND DUP1 DUP3 MSTORE PUSH1 0x20 DUP3 ADD SWAP4 SWAP1 SWAP4 MSTORE DUP2 MLOAD PUSH32 0x7AC369DBD14FA5EA3F473ED67CC9D598964A77501540BA6751EB0B3DECF5870D SWAP3 SWAP2 DUP2 SWAP1 SUB SWAP1 SWAP2 ADD SWAP1 LOG1 PUSH1 0x0 SWAP2 POP POP JUMPDEST SWAP2 SWAP1 POP JUMP JUMPDEST PUSH1 0x4 SLOAD PUSH1 0x0 SWAP1 PUSH1 0x1 PUSH1 0x1 PUSH1 0xA0 SHL SUB AND ISZERO PUSH2 0xBA6 JUMPI PUSH1 0x4 DUP1 SLOAD PUSH1 0x40 DUP1 MLOAD PUSH4 0x84BF5AB PUSH1 0xE3 SHL DUP2 MSTORE SWAP1 MLOAD PUSH1 0x1 PUSH1 0x1 PUSH1 0xA0 SHL SUB SWAP1 SWAP3 AND SWAP3 PUSH4 0x425FAD58 SWAP3 DUP3 DUP3 ADD SWAP3 PUSH1 0x20 SWAP3 SWAP1 DUP3 SWAP1 SUB ADD DUP2 DUP7 DUP1 EXTCODESIZE ISZERO DUP1 ISZERO PUSH2 0xC01 JUMPI PUSH1 0x0 DUP1 REVERT JUMPDEST POP GAS STATICCALL ISZERO DUP1 ISZERO PUSH2 0xC15 JUMPI RETURNDATASIZE PUSH1 0x0 DUP1 RETURNDATACOPY RETURNDATASIZE PUSH1 0x0 REVERT JUMPDEST POP POP POP POP PUSH1 0x40 MLOAD RETURNDATASIZE PUSH1 0x20 DUP2 LT ISZERO PUSH2 0xC2B JUMPI PUSH1 0x0 DUP1 REVERT JUMPDEST POP MLOAD ISZERO PUSH2 0xC74 JUMPI PUSH1 0x40 DUP1 MLOAD PUSH3 0x461BCD PUSH1 0xE5 SHL DUP2 MSTORE PUSH1 0x20 PUSH1 0x4 DUP3 ADD MSTORE PUSH1 0x12 PUSH1 0x24 DUP3 ADD MSTORE PUSH18 0x1C1C9BDD1BD8DBDB081A5CC81C185D5CD959 PUSH1 0x72 SHL PUSH1 0x44 DUP3 ADD MSTORE SWAP1 MLOAD SWAP1 DUP2 SWAP1 SUB PUSH1 0x64 ADD SWAP1 REVERT JUMPDEST CALLER PUSH2 0xC7D PUSH2 0x1649 JUMP JUMPDEST POP PUSH1 0x4 DUP1 SLOAD PUSH1 0x40 DUP1 MLOAD PUSH4 0x2A0C0463 PUSH1 0xE0 SHL DUP2 MSTORE PUSH1 0x1 PUSH1 0x1 PUSH1 0xA0 SHL SUB DUP6 DUP2 AND SWAP5 DUP3 ADD SWAP5 SWAP1 SWAP5 MSTORE PUSH1 0x0 PUSH1 0x24 DUP3 ADD DUP2 SWAP1 MSTORE SWAP2 MLOAD SWAP4 SWAP1 SWAP3 AND SWAP3 PUSH4 0x2A0C0463 SWAP3 PUSH1 0x44 DUP1 DUP3 ADD SWAP4 SWAP3 SWAP2 DUP3 SWAP1 SUB ADD DUP2 DUP4 DUP8 DUP1 EXTCODESIZE ISZERO DUP1 ISZERO PUSH2 0xCD5 JUMPI PUSH1 0x0 DUP1 REVERT JUMPDEST POP GAS CALL ISZERO DUP1 ISZERO PUSH2 0xCE9 JUMPI RETURNDATASIZE PUSH1 0x0 DUP1 RETURNDATACOPY RETURNDATASIZE PUSH1 0x0 REVERT JUMPDEST POP POP POP POP PUSH1 0x0 DUP1 PUSH1 0x0 DUP1 PUSH2 0xCFC DUP6 PUSH2 0x4E8 JUMP JUMPDEST SWAP1 SWAP5 POP SWAP1 POP DUP4 ISZERO PUSH2 0xD16 JUMPI PUSH1 0x2 JUMPDEST SWAP6 POP POP POP POP POP POP PUSH2 0xBA6 JUMP JUMPDEST DUP1 DUP8 GT ISZERO PUSH2 0xD2A JUMPI PUSH2 0xD0A PUSH1 0x2 PUSH1 0x5 PUSH2 0x1B3F JUMP JUMPDEST PUSH1 0x4 DUP1 SLOAD PUSH1 0x40 DUP1 MLOAD PUSH4 0x15E3F14F PUSH1 0xE1 SHL DUP2 MSTORE PUSH1 0x1 PUSH1 0x1 PUSH1 0xA0 SHL SUB DUP10 DUP2 AND SWAP5 DUP3 ADD SWAP5 SWAP1 SWAP5 MSTORE SWAP1 MLOAD PUSH2 0xDB0 SWAP4 SWAP1 SWAP3 AND SWAP2 PUSH4 0x2BC7E29E SWAP2 PUSH1 0x24 DUP1 DUP3 ADD SWAP3 PUSH1 0x20 SWAP3 SWAP1 SWAP2 SWAP1 DUP3 SWAP1 SUB ADD DUP2 DUP7 DUP1 EXTCODESIZE ISZERO DUP1 ISZERO PUSH2 0xD7E JUMPI PUSH1 0x0 DUP1 REVERT JUMPDEST POP GAS STATICCALL ISZERO DUP1 ISZERO PUSH2 0xD92 JUMPI RETURNDATASIZE PUSH1 0x0 DUP1 RETURNDATACOPY RETURNDATASIZE PUSH1 0x0 REVERT JUMPDEST POP POP POP POP PUSH1 0x40 MLOAD RETURNDATASIZE PUSH1 0x20 DUP2 LT ISZERO PUSH2 0xDA8 JUMPI PUSH1 0x0 DUP1 REVERT JUMPDEST POP MLOAD DUP9 PUSH2 0x1A8C JUMP JUMPDEST SWAP1 SWAP4 POP SWAP2 POP PUSH1 0x0 DUP4 PUSH1 0x3 DUP2 GT ISZERO PUSH2 0xDC3 JUMPI INVALID JUMPDEST EQ PUSH2 0xDFF JUMPI PUSH1 0x40 MLOAD PUSH3 0x461BCD PUSH1 0xE5 SHL DUP2 MSTORE PUSH1 0x4 ADD DUP1 DUP1 PUSH1 0x20 ADD DUP3 DUP2 SUB DUP3 MSTORE PUSH1 0x22 DUP2 MSTORE PUSH1 0x20 ADD DUP1 PUSH2 0x20BF PUSH1 0x22 SWAP2 CODECOPY PUSH1 0x40 ADD SWAP2 POP POP PUSH1 0x40 MLOAD DUP1 SWAP2 SUB SWAP1 REVERT JUMPDEST PUSH1 0x4 DUP1 SLOAD PUSH1 0x40 DUP1 MLOAD PUSH4 0xFD51A3AD PUSH1 0xE0 SHL DUP2 MSTORE PUSH1 0x1 PUSH1 0x1 PUSH1 0xA0 SHL SUB DUP10 DUP2 AND SWAP5 DUP3 ADD SWAP5 SWAP1 SWAP5 MSTORE PUSH1 0x24 DUP2 ADD DUP7 SWAP1 MSTORE SWAP1 MLOAD PUSH1 0x0 SWAP4 SWAP1 SWAP3 AND SWAP2 PUSH4 0xFD51A3AD SWAP2 PUSH1 0x44 DUP1 DUP3 ADD SWAP3 PUSH1 0x20 SWAP3 SWAP1 SWAP2 SWAP1 DUP3 SWAP1 SUB ADD DUP2 DUP8 DUP8 DUP1 EXTCODESIZE ISZERO DUP1 ISZERO PUSH2 0xE5A JUMPI PUSH1 0x0 DUP1 REVERT JUMPDEST POP GAS CALL ISZERO DUP1 ISZERO PUSH2 0xE6E JUMPI RETURNDATASIZE PUSH1 0x0 DUP1 RETURNDATACOPY RETURNDATASIZE PUSH1 0x0 REVERT JUMPDEST POP POP POP POP PUSH1 0x40 MLOAD RETURNDATASIZE PUSH1 0x20 DUP2 LT ISZERO PUSH2 0xE84 JUMPI PUSH1 0x0 DUP1 REVERT JUMPDEST POP MLOAD SWAP1 POP DUP1 ISZERO PUSH2 0xE9B JUMPI SWAP6 POP PUSH2 0xBA6 SWAP5 POP POP POP POP POP JUMP JUMPDEST PUSH2 0xEA3 PUSH2 0x13FA JUMP JUMPDEST PUSH1 0x1 PUSH1 0x1 PUSH1 0xA0 SHL SUB AND PUSH4 0x40C10F19 DUP8 DUP11 PUSH1 0x40 MLOAD DUP4 PUSH4 0xFFFFFFFF AND PUSH1 0xE0 SHL DUP2 MSTORE PUSH1 0x4 ADD DUP1 DUP4 PUSH1 0x1 PUSH1 0x1 PUSH1 0xA0 SHL SUB AND PUSH1 0x1 PUSH1 0x1 PUSH1 0xA0 SHL SUB AND DUP2 MSTORE PUSH1 0x20 ADD DUP3 DUP2 MSTORE PUSH1 0x20 ADD SWAP3 POP POP POP PUSH1 0x0 PUSH1 0x40 MLOAD DUP1 DUP4 SUB DUP2 PUSH1 0x0 DUP8 DUP1 EXTCODESIZE ISZERO DUP1 ISZERO PUSH2 0xF02 JUMPI PUSH1 0x0 DUP1 REVERT JUMPDEST POP GAS CALL ISZERO DUP1 ISZERO PUSH2 0xF16 JUMPI RETURNDATASIZE PUSH1 0x0 DUP1 RETURNDATACOPY RETURNDATASIZE PUSH1 0x0 REVERT JUMPDEST POP POP PUSH1 0x40 DUP1 MLOAD PUSH1 0x1 PUSH1 0x1 PUSH1 0xA0 SHL SUB DUP11 AND DUP2 MSTORE PUSH1 0x20 DUP2 ADD DUP13 SWAP1 MSTORE DUP2 MLOAD PUSH31 0x2E68AB1600FC5E7290E2CEAA79E2F86B4DBACA84A48421E167E0B40409218A SWAP5 POP SWAP1 DUP2 SWAP1 SUB SWAP1 SWAP2 ADD SWAP2 POP LOG1 PUSH1 0x0 SWAP7 POP POP POP POP POP POP POP PUSH2 0xBA6 JUMP JUMPDEST PUSH1 0x0 DUP1 SLOAD PUSH1 0x1 PUSH1 0x1 PUSH1 0xA0 SHL SUB AND CALLER EQ PUSH2 0xF8B JUMPI PUSH2 0xB3A PUSH1 0x1 PUSH1 0x2 PUSH2 0x1B3F JUMP JUMPDEST PUSH1 0x6 SLOAD PUSH1 0xFF AND PUSH2 0xBA6 JUMPI PUSH1 0x6 DUP1 SLOAD PUSH1 0xFF NOT AND PUSH1 0x1 OR SWAP1 SSTORE PUSH1 0x0 DUP3 ISZERO PUSH2 0xFB0 JUMPI DUP3 PUSH2 0xFB8 JUMP JUMPDEST PUSH2 0xFB8 PUSH2 0xB17 JUMP JUMPDEST SWAP1 POP PUSH1 0x40 MLOAD DUP1 PUSH1 0x40 ADD PUSH1 0x40 MSTORE DUP1 PUSH15 0xC097CE7BC90715B34B9F1000000000 PUSH1 0x1 PUSH1 0x1 PUSH1 0xE0 SHL SUB AND DUP2 MSTORE PUSH1 0x20 ADD PUSH2 0x101B DUP4 PUSH1 0x40 MLOAD DUP1 PUSH1 0x40 ADD PUSH1 0x40 MSTORE DUP1 PUSH1 0x16 DUP2 MSTORE PUSH1 0x20 ADD PUSH22 0x626C6F636B206E756D626572206F766572666C6F7773 PUSH1 0x50 SHL DUP2 MSTORE POP PUSH2 0x1BAC JUMP JUMPDEST PUSH4 0xFFFFFFFF SWAP1 DUP2 AND SWAP1 SWAP2 MSTORE DUP2 MLOAD PUSH1 0x5 DUP1 SLOAD PUSH1 0x20 SWAP1 SWAP5 ADD MLOAD SWAP1 SWAP3 AND PUSH1 0x1 PUSH1 0xE0 SHL MUL PUSH1 0x1 PUSH1 0x1 PUSH1 0xE0 SHL SUB SWAP2 DUP3 AND PUSH1 0x1 PUSH1 0x1 PUSH1 0xE0 SHL SUB NOT SWAP1 SWAP5 AND SWAP4 SWAP1 SWAP4 OR AND SWAP2 SWAP1 SWAP2 OR SWAP1 SSTORE POP SWAP2 SWAP1 POP JUMP JUMPDEST PUSH1 0x4 SLOAD PUSH1 0x1 PUSH1 0x1 PUSH1 0xA0 SHL SUB AND DUP2 JUMP JUMPDEST PUSH1 0x6 SLOAD PUSH1 0xFF AND DUP2 JUMP JUMPDEST PUSH1 0x4 SLOAD PUSH1 0x0 SWAP1 PUSH1 0x1 PUSH1 0x1 PUSH1 0xA0 SHL SUB AND ISZERO PUSH2 0xBA6 JUMPI PUSH1 0x4 DUP1 SLOAD PUSH1 0x40 DUP1 MLOAD PUSH4 0x84BF5AB PUSH1 0xE3 SHL DUP2 MSTORE SWAP1 MLOAD PUSH1 0x1 PUSH1 0x1 PUSH1 0xA0 SHL SUB SWAP1 SWAP3 AND SWAP3 PUSH4 0x425FAD58 SWAP3 DUP3 DUP3 ADD SWAP3 PUSH1 0x20 SWAP3 SWAP1 DUP3 SWAP1 SUB ADD DUP2 DUP7 DUP1 EXTCODESIZE ISZERO DUP1 ISZERO PUSH2 0x10D1 JUMPI PUSH1 0x0 DUP1 REVERT JUMPDEST POP GAS STATICCALL ISZERO DUP1 ISZERO PUSH2 0x10E5 JUMPI RETURNDATASIZE PUSH1 0x0 DUP1 RETURNDATACOPY RETURNDATASIZE PUSH1 0x0 REVERT JUMPDEST POP POP POP POP PUSH1 0x40 MLOAD RETURNDATASIZE PUSH1 0x20 DUP2 LT ISZERO PUSH2 0x10FB JUMPI PUSH1 0x0 DUP1 REVERT JUMPDEST POP MLOAD ISZERO PUSH2 0x1144 JUMPI PUSH1 0x40 DUP1 MLOAD PUSH3 0x461BCD PUSH1 0xE5 SHL DUP2 MSTORE PUSH1 0x20 PUSH1 0x4 DUP3 ADD MSTORE PUSH1 0x12 PUSH1 0x24 DUP3 ADD MSTORE PUSH18 0x1C1C9BDD1BD8DBDB081A5CC81C185D5CD959 PUSH1 0x72 SHL PUSH1 0x44 DUP3 ADD MSTORE SWAP1 MLOAD SWAP1 DUP2 SWAP1 SUB PUSH1 0x64 ADD SWAP1 REVERT JUMPDEST CALLER PUSH2 0x114D PUSH2 0x1649 JUMP JUMPDEST POP PUSH1 0x4 DUP1 SLOAD PUSH1 0x40 DUP1 MLOAD PUSH4 0x2A0C0463 PUSH1 0xE0 SHL DUP2 MSTORE PUSH1 0x1 PUSH1 0x1 PUSH1 0xA0 SHL SUB DUP6 DUP2 AND SWAP5 DUP3 ADD SWAP5 SWAP1 SWAP5 MSTORE PUSH1 0x0 PUSH1 0x24 DUP3 ADD DUP2 SWAP1 MSTORE SWAP2 MLOAD SWAP4 SWAP1 SWAP3 AND SWAP3 PUSH4 0x2A0C0463 SWAP3 PUSH1 0x44 DUP1 DUP3 ADD SWAP4 SWAP3 SWAP2 DUP3 SWAP1 SUB ADD DUP2 DUP4 DUP8 DUP1 EXTCODESIZE ISZERO DUP1 ISZERO PUSH2 0x11A5 JUMPI PUSH1 0x0 DUP1 REVERT JUMPDEST POP GAS CALL ISZERO DUP1 ISZERO PUSH2 0x11B9 JUMPI RETURNDATASIZE PUSH1 0x0 DUP1 RETURNDATACOPY RETURNDATASIZE PUSH1 0x0 REVERT JUMPDEST POP POP POP POP PUSH1 0x0 DUP1 PUSH1 0x4 PUSH1 0x0 SWAP1 SLOAD SWAP1 PUSH2 0x100 EXP SWAP1 DIV PUSH1 0x1 PUSH1 0x1 PUSH1 0xA0 SHL SUB AND PUSH1 0x1 PUSH1 0x1 PUSH1 0xA0 SHL SUB AND PUSH4 0x2BC7E29E DUP5 PUSH1 0x40 MLOAD DUP3 PUSH4 0xFFFFFFFF AND PUSH1 0xE0 SHL DUP2 MSTORE PUSH1 0x4 ADD DUP1 DUP3 PUSH1 0x1 PUSH1 0x1 PUSH1 0xA0 SHL SUB AND PUSH1 0x1 PUSH1 0x1 PUSH1 0xA0 SHL SUB AND DUP2 MSTORE PUSH1 0x20 ADD SWAP2 POP POP PUSH1 0x20 PUSH1 0x40 MLOAD DUP1 DUP4 SUB DUP2 DUP7 DUP1 EXTCODESIZE ISZERO DUP1 ISZERO PUSH2 0x122B JUMPI PUSH1 0x0 DUP1 REVERT JUMPDEST POP GAS STATICCALL ISZERO DUP1 ISZERO PUSH2 0x123F JUMPI RETURNDATASIZE PUSH1 0x0 DUP1 RETURNDATACOPY RETURNDATASIZE PUSH1 0x0 REVERT JUMPDEST POP POP POP POP PUSH1 0x40 MLOAD RETURNDATASIZE PUSH1 0x20 DUP2 LT ISZERO PUSH2 0x1255 JUMPI PUSH1 0x0 DUP1 REVERT JUMPDEST POP MLOAD SWAP1 POP DUP5 DUP2 GT ISZERO PUSH2 0x1269 JUMPI DUP5 SWAP2 POP PUSH2 0x126D JUMP JUMPDEST DUP1 SWAP2 POP JUMPDEST PUSH1 0x4 DUP1 SLOAD PUSH1 0x40 DUP1 MLOAD PUSH4 0xFD51A3AD PUSH1 0xE0 SHL DUP2 MSTORE PUSH1 0x1 PUSH1 0x1 PUSH1 0xA0 SHL SUB DUP8 DUP2 AND SWAP5 DUP3 ADD SWAP5 SWAP1 SWAP5 MSTORE DUP6 DUP6 SUB PUSH1 0x24 DUP3 ADD MSTORE SWAP1 MLOAD PUSH1 0x0 SWAP4 SWAP1 SWAP3 AND SWAP2 PUSH4 0xFD51A3AD SWAP2 PUSH1 0x44 DUP1 DUP3 ADD SWAP3 PUSH1 0x20 SWAP3 SWAP1 SWAP2 SWAP1 DUP3 SWAP1 SUB ADD DUP2 DUP8 DUP8 DUP1 EXTCODESIZE ISZERO DUP1 ISZERO PUSH2 0x12C9 JUMPI PUSH1 0x0 DUP1 REVERT JUMPDEST POP GAS CALL ISZERO DUP1 ISZERO PUSH2 0x12DD JUMPI RETURNDATASIZE PUSH1 0x0 DUP1 RETURNDATACOPY RETURNDATASIZE PUSH1 0x0 REVERT JUMPDEST POP POP POP POP PUSH1 0x40 MLOAD RETURNDATASIZE PUSH1 0x20 DUP2 LT ISZERO PUSH2 0x12F3 JUMPI PUSH1 0x0 DUP1 REVERT JUMPDEST POP MLOAD SWAP1 POP DUP1 ISZERO PUSH2 0x1308 JUMPI SWAP4 POP PUSH2 0xBA6 SWAP3 POP POP POP JUMP JUMPDEST PUSH2 0x1310 PUSH2 0x13FA JUMP JUMPDEST PUSH1 0x1 PUSH1 0x1 PUSH1 0xA0 SHL SUB AND PUSH4 0x9DC29FAC DUP6 DUP6 PUSH1 0x40 MLOAD DUP4 PUSH4 0xFFFFFFFF AND PUSH1 0xE0 SHL DUP2 MSTORE PUSH1 0x4 ADD DUP1 DUP4 PUSH1 0x1 PUSH1 0x1 PUSH1 0xA0 SHL SUB AND PUSH1 0x1 PUSH1 0x1 PUSH1 0xA0 SHL SUB AND DUP2 MSTORE PUSH1 0x20 ADD DUP3 DUP2 MSTORE PUSH1 0x20 ADD SWAP3 POP POP POP PUSH1 0x0 PUSH1 0x40 MLOAD DUP1 DUP4 SUB DUP2 PUSH1 0x0 DUP8 DUP1 EXTCODESIZE ISZERO DUP1 ISZERO PUSH2 0x136F JUMPI PUSH1 0x0 DUP1 REVERT JUMPDEST POP GAS CALL ISZERO DUP1 ISZERO PUSH2 0x1383 JUMPI RETURNDATASIZE PUSH1 0x0 DUP1 RETURNDATACOPY RETURNDATASIZE PUSH1 0x0 REVERT JUMPDEST POP POP PUSH1 0x40 DUP1 MLOAD PUSH1 0x1 PUSH1 0x1 PUSH1 0xA0 SHL SUB DUP9 AND DUP2 MSTORE PUSH1 0x20 DUP2 ADD DUP8 SWAP1 MSTORE DUP2 MLOAD PUSH32 0xD4A31707E3681A9B597321BFD1357488DE9C7205D4195175B27E68B58A369D1E SWAP5 POP SWAP1 DUP2 SWAP1 SUB SWAP1 SWAP2 ADD SWAP2 POP LOG1 PUSH1 0x0 SWAP5 POP POP POP POP POP PUSH2 0xBA6 JUMP JUMPDEST PUSH1 0x3 SLOAD PUSH1 0x1 PUSH1 0x1 PUSH1 0xA0 SHL SUB AND DUP2 JUMP JUMPDEST PUSH15 0xC097CE7BC90715B34B9F1000000000 DUP2 JUMP JUMPDEST PUSH20 0x4BD17003473389A42DAF6A0A729F6FDB328BBBD7 SWAP1 JUMP JUMPDEST PUSH1 0x4 SLOAD PUSH1 0x0 SWAP1 DUP2 SWAP1 DUP2 SWAP1 DUP2 SWAP1 PUSH1 0x1 PUSH1 0x1 PUSH1 0xA0 SHL SUB AND CALLER EQ PUSH2 0x144A JUMPI PUSH2 0x1439 PUSH1 0x1 PUSH1 0x2 PUSH2 0x1B3F JUMP JUMPDEST SWAP4 POP PUSH1 0x0 SWAP3 POP DUP3 SWAP2 POP DUP2 SWAP1 POP PUSH2 0x1642 JUMP JUMPDEST PUSH2 0x1452 PUSH2 0x20AB JUMP JUMPDEST POP PUSH1 0x40 DUP1 MLOAD PUSH1 0x20 DUP2 ADD SWAP1 SWAP2 MSTORE PUSH1 0x5 SLOAD PUSH1 0x1 PUSH1 0x1 PUSH1 0xE0 SHL SUB AND DUP2 MSTORE PUSH2 0x1474 PUSH2 0x20AB JUMP JUMPDEST POP PUSH1 0x40 DUP1 MLOAD PUSH1 0x20 DUP1 DUP3 ADD DUP4 MSTORE PUSH1 0x1 PUSH1 0x1 PUSH1 0xA0 SHL SUB DUP10 AND PUSH1 0x0 DUP2 DUP2 MSTORE PUSH1 0x7 DUP1 DUP5 MSTORE SWAP5 DUP2 KECCAK256 DUP1 SLOAD DUP6 MSTORE DUP7 MLOAD SWAP3 SWAP1 SWAP2 MSTORE SWAP4 SWAP1 SWAP2 MSTORE SWAP1 SWAP2 SSTORE DUP1 MLOAD ISZERO DUP1 ISZERO PUSH2 0x14B7 JUMPI POP DUP2 MLOAD ISZERO ISZERO JUMPDEST ISZERO PUSH2 0x14CF JUMPI PUSH15 0xC097CE7BC90715B34B9F1000000000 DUP2 MSTORE JUMPDEST PUSH2 0x14D7 PUSH2 0x20AB JUMP JUMPDEST PUSH2 0x14E1 DUP4 DUP4 PUSH2 0x1C47 JUMP JUMPDEST SWAP1 POP PUSH1 0x0 PUSH1 0x4 PUSH1 0x0 SWAP1 SLOAD SWAP1 PUSH2 0x100 EXP SWAP1 DIV PUSH1 0x1 PUSH1 0x1 PUSH1 0xA0 SHL SUB AND PUSH1 0x1 PUSH1 0x1 PUSH1 0xA0 SHL SUB AND PUSH4 0x2BC7E29E DUP11 PUSH1 0x40 MLOAD DUP3 PUSH4 0xFFFFFFFF AND PUSH1 0xE0 SHL DUP2 MSTORE PUSH1 0x4 ADD DUP1 DUP3 PUSH1 0x1 PUSH1 0x1 PUSH1 0xA0 SHL SUB AND PUSH1 0x1 PUSH1 0x1 PUSH1 0xA0 SHL SUB AND DUP2 MSTORE PUSH1 0x20 ADD SWAP2 POP POP PUSH1 0x20 PUSH1 0x40 MLOAD DUP1 DUP4 SUB DUP2 DUP7 DUP1 EXTCODESIZE ISZERO DUP1 ISZERO PUSH2 0x1550 JUMPI PUSH1 0x0 DUP1 REVERT JUMPDEST POP GAS STATICCALL ISZERO DUP1 ISZERO PUSH2 0x1564 JUMPI RETURNDATASIZE PUSH1 0x0 DUP1 RETURNDATACOPY RETURNDATASIZE PUSH1 0x0 REVERT JUMPDEST POP POP POP POP PUSH1 0x40 MLOAD RETURNDATASIZE PUSH1 0x20 DUP2 LT ISZERO PUSH2 0x157A JUMPI PUSH1 0x0 DUP1 REVERT JUMPDEST POP MLOAD SWAP1 POP PUSH1 0x0 PUSH2 0x158A DUP3 DUP5 PUSH2 0x1C75 JUMP JUMPDEST SWAP1 POP PUSH1 0x0 PUSH2 0x162E PUSH1 0x4 PUSH1 0x0 SWAP1 SLOAD SWAP1 PUSH2 0x100 EXP SWAP1 DIV PUSH1 0x1 PUSH1 0x1 PUSH1 0xA0 SHL SUB AND PUSH1 0x1 PUSH1 0x1 PUSH1 0xA0 SHL SUB AND PUSH4 0x8A7DC165 DUP14 PUSH1 0x40 MLOAD DUP3 PUSH4 0xFFFFFFFF AND PUSH1 0xE0 SHL DUP2 MSTORE PUSH1 0x4 ADD DUP1 DUP3 PUSH1 0x1 PUSH1 0x1 PUSH1 0xA0 SHL SUB AND PUSH1 0x1 PUSH1 0x1 PUSH1 0xA0 SHL SUB AND DUP2 MSTORE PUSH1 0x20 ADD SWAP2 POP POP PUSH1 0x20 PUSH1 0x40 MLOAD DUP1 DUP4 SUB DUP2 DUP7 DUP1 EXTCODESIZE ISZERO DUP1 ISZERO PUSH2 0x15FC JUMPI PUSH1 0x0 DUP1 REVERT JUMPDEST POP GAS STATICCALL ISZERO DUP1 ISZERO PUSH2 0x1610 JUMPI RETURNDATASIZE PUSH1 0x0 DUP1 RETURNDATACOPY RETURNDATASIZE PUSH1 0x0 REVERT JUMPDEST POP POP POP POP PUSH1 0x40 MLOAD RETURNDATASIZE PUSH1 0x20 DUP2 LT ISZERO PUSH2 0x1626 JUMPI PUSH1 0x0 DUP1 REVERT JUMPDEST POP MLOAD DUP4 PUSH2 0x1CA4 JUMP JUMPDEST SWAP1 POP PUSH1 0x0 SWAP6 MLOAD SWAP6 SWAP10 POP SWAP8 POP SWAP6 POP SWAP3 SWAP4 POP POP POP POP JUMPDEST SWAP2 SWAP4 POP SWAP2 SWAP4 JUMP JUMPDEST PUSH1 0x4 DUP1 SLOAD PUSH1 0x40 DUP1 MLOAD PUSH4 0xE673203 PUSH1 0xE2 SHL DUP2 MSTORE SWAP1 MLOAD PUSH1 0x0 SWAP4 DUP5 SWAP4 PUSH1 0x1 PUSH1 0x1 PUSH1 0xA0 SHL SUB AND SWAP3 PUSH4 0x399CC80C SWAP3 DUP2 DUP4 ADD SWAP3 PUSH1 0x20 SWAP3 DUP3 SWAP1 SUB ADD DUP2 DUP7 DUP1 EXTCODESIZE ISZERO DUP1 ISZERO PUSH2 0x168D JUMPI PUSH1 0x0 DUP1 REVERT JUMPDEST POP GAS STATICCALL ISZERO DUP1 ISZERO PUSH2 0x16A1 JUMPI RETURNDATASIZE PUSH1 0x0 DUP1 RETURNDATACOPY RETURNDATASIZE PUSH1 0x0 REVERT JUMPDEST POP POP POP POP PUSH1 0x40 MLOAD RETURNDATASIZE PUSH1 0x20 DUP2 LT ISZERO PUSH2 0x16B7 JUMPI PUSH1 0x0 DUP1 REVERT JUMPDEST POP MLOAD SWAP1 POP PUSH1 0x0 PUSH2 0x16C5 PUSH2 0xB17 JUMP JUMPDEST PUSH1 0x5 SLOAD SWAP1 SWAP2 POP PUSH1 0x0 SWAP1 PUSH2 0x16E6 SWAP1 DUP4 SWAP1 PUSH1 0x1 PUSH1 0xE0 SHL SWAP1 DIV PUSH4 0xFFFFFFFF AND PUSH2 0x1CDA JUMP JUMPDEST SWAP1 POP PUSH1 0x0 DUP2 GT DUP1 ISZERO PUSH2 0x16F8 JUMPI POP PUSH1 0x0 DUP4 GT JUMPDEST ISZERO PUSH2 0x18AF JUMPI PUSH1 0x0 PUSH2 0x1707 PUSH2 0x13FA JUMP JUMPDEST PUSH1 0x1 PUSH1 0x1 PUSH1 0xA0 SHL SUB AND PUSH4 0x18160DDD PUSH1 0x40 MLOAD DUP2 PUSH4 0xFFFFFFFF AND PUSH1 0xE0 SHL DUP2 MSTORE PUSH1 0x4 ADD PUSH1 0x20 PUSH1 0x40 MLOAD DUP1 DUP4 SUB DUP2 DUP7 DUP1 EXTCODESIZE ISZERO DUP1 ISZERO PUSH2 0x173F JUMPI PUSH1 0x0 DUP1 REVERT JUMPDEST POP GAS STATICCALL ISZERO DUP1 ISZERO PUSH2 0x1753 JUMPI RETURNDATASIZE PUSH1 0x0 DUP1 RETURNDATACOPY RETURNDATASIZE PUSH1 0x0 REVERT JUMPDEST POP POP POP POP PUSH1 0x40 MLOAD RETURNDATASIZE PUSH1 0x20 DUP2 LT ISZERO PUSH2 0x1769 JUMPI PUSH1 0x0 DUP1 REVERT JUMPDEST POP MLOAD SWAP1 POP PUSH1 0x0 PUSH2 0x1779 DUP4 DUP7 PUSH2 0x1D14 JUMP JUMPDEST SWAP1 POP PUSH2 0x1783 PUSH2 0x20AB JUMP JUMPDEST PUSH1 0x0 DUP4 GT PUSH2 0x17A0 JUMPI PUSH1 0x40 MLOAD DUP1 PUSH1 0x20 ADD PUSH1 0x40 MSTORE DUP1 PUSH1 0x0 DUP2 MSTORE POP PUSH2 0x17AA JUMP JUMPDEST PUSH2 0x17AA DUP3 DUP5 PUSH2 0x1D56 JUMP JUMPDEST SWAP1 POP PUSH2 0x17B4 PUSH2 0x20AB JUMP JUMPDEST PUSH1 0x40 DUP1 MLOAD PUSH1 0x20 DUP2 ADD SWAP1 SWAP2 MSTORE PUSH1 0x5 SLOAD PUSH1 0x1 PUSH1 0x1 PUSH1 0xE0 SHL SUB AND DUP2 MSTORE PUSH2 0x17D7 SWAP1 DUP4 PUSH2 0x1D8B JUMP JUMPDEST SWAP1 POP PUSH1 0x40 MLOAD DUP1 PUSH1 0x40 ADD PUSH1 0x40 MSTORE DUP1 PUSH2 0x181D DUP4 PUSH1 0x0 ADD MLOAD PUSH1 0x40 MLOAD DUP1 PUSH1 0x40 ADD PUSH1 0x40 MSTORE DUP1 PUSH1 0x13 DUP2 MSTORE PUSH1 0x20 ADD PUSH19 0x6E657720696E646578206F766572666C6F7773 PUSH1 0x68 SHL DUP2 MSTORE POP PUSH2 0x1DB0 JUMP JUMPDEST PUSH1 0x1 PUSH1 0x1 PUSH1 0xE0 SHL SUB AND DUP2 MSTORE PUSH1 0x20 ADD PUSH2 0x1863 DUP9 PUSH1 0x40 MLOAD DUP1 PUSH1 0x40 ADD PUSH1 0x40 MSTORE DUP1 PUSH1 0x16 DUP2 MSTORE PUSH1 0x20 ADD PUSH22 0x626C6F636B206E756D626572206F766572666C6F7773 PUSH1 0x50 SHL DUP2 MSTORE POP PUSH2 0x1BAC JUMP JUMPDEST PUSH4 0xFFFFFFFF SWAP1 DUP2 AND SWAP1 SWAP2 MSTORE DUP2 MLOAD PUSH1 0x5 DUP1 SLOAD PUSH1 0x20 SWAP1 SWAP5 ADD MLOAD SWAP1 SWAP3 AND PUSH1 0x1 PUSH1 0xE0 SHL MUL PUSH1 0x1 PUSH1 0x1 PUSH1 0xE0 SHL SUB SWAP2 DUP3 AND PUSH1 0x1 PUSH1 0x1 PUSH1 0xE0 SHL SUB NOT SWAP1 SWAP5 AND SWAP4 SWAP1 SWAP4 OR AND SWAP2 SWAP1 SWAP2 OR SWAP1 SSTORE POP PUSH2 0x1912 SWAP3 POP POP POP JUMP JUMPDEST DUP1 ISZERO PUSH2 0x1912 JUMPI PUSH2 0x18ED DUP3 PUSH1 0x40 MLOAD DUP1 PUSH1 0x40 ADD PUSH1 0x40 MSTORE DUP1 PUSH1 0x16 DUP2 MSTORE PUSH1 0x20 ADD PUSH22 0x626C6F636B206E756D626572206F766572666C6F7773 PUSH1 0x50 SHL DUP2 MSTORE POP PUSH2 0x1BAC JUMP JUMPDEST PUSH1 0x5 DUP1 SLOAD PUSH4 0xFFFFFFFF SWAP3 SWAP1 SWAP3 AND PUSH1 0x1 PUSH1 0xE0 SHL MUL PUSH1 0x1 PUSH1 0x1 PUSH1 0xE0 SHL SUB SWAP1 SWAP3 AND SWAP2 SWAP1 SWAP2 OR SWAP1 SSTORE JUMPDEST POP POP POP SWAP1 JUMP JUMPDEST PUSH1 0x5 SLOAD PUSH1 0x1 PUSH1 0x1 PUSH1 0xE0 SHL SUB DUP2 AND SWAP1 PUSH1 0x1 PUSH1 0xE0 SHL SWAP1 DIV PUSH4 0xFFFFFFFF AND DUP3 JUMP JUMPDEST PUSH1 0x0 SLOAD PUSH1 0x1 PUSH1 0x1 PUSH1 0xA0 SHL SUB AND DUP2 JUMP JUMPDEST PUSH1 0x0 PUSH2 0x194F PUSH2 0x20AB JUMP JUMPDEST PUSH1 0x0 DUP1 PUSH2 0x1964 DUP7 PUSH1 0x0 ADD MLOAD DUP7 PUSH1 0x0 ADD MLOAD PUSH2 0x1AB2 JUMP JUMPDEST SWAP1 SWAP3 POP SWAP1 POP PUSH1 0x0 DUP3 PUSH1 0x3 DUP2 GT ISZERO PUSH2 0x1977 JUMPI INVALID JUMPDEST EQ PUSH2 0x1996 JUMPI POP PUSH1 0x40 DUP1 MLOAD PUSH1 0x20 DUP2 ADD SWAP1 SWAP2 MSTORE PUSH1 0x0 DUP2 MSTORE SWAP1 SWAP3 POP SWAP1 POP PUSH2 0x1A29 JUMP JUMPDEST PUSH1 0x0 DUP1 PUSH2 0x19AB PUSH8 0x6F05B59D3B20000 DUP5 PUSH2 0x1A8C JUMP JUMPDEST SWAP1 SWAP3 POP SWAP1 POP PUSH1 0x0 DUP3 PUSH1 0x3 DUP2 GT ISZERO PUSH2 0x19BE JUMPI INVALID JUMPDEST EQ PUSH2 0x19E0 JUMPI POP PUSH1 0x40 DUP1 MLOAD PUSH1 0x20 DUP2 ADD SWAP1 SWAP2 MSTORE PUSH1 0x0 DUP2 MSTORE SWAP1 SWAP5 POP SWAP3 POP PUSH2 0x1A29 SWAP2 POP POP JUMP JUMPDEST PUSH1 0x0 DUP1 PUSH2 0x19F5 DUP4 PUSH8 0xDE0B6B3A7640000 PUSH2 0x1AF1 JUMP JUMPDEST SWAP1 SWAP3 POP SWAP1 POP PUSH1 0x0 DUP3 PUSH1 0x3 DUP2 GT ISZERO PUSH2 0x1A08 JUMPI INVALID JUMPDEST EQ PUSH2 0x1A0F JUMPI INVALID JUMPDEST PUSH1 0x40 DUP1 MLOAD PUSH1 0x20 DUP2 ADD SWAP1 SWAP2 MSTORE SWAP1 DUP2 MSTORE PUSH1 0x0 SWAP8 POP SWAP6 POP POP POP POP POP POP JUMPDEST SWAP3 POP SWAP3 SWAP1 POP JUMP JUMPDEST PUSH1 0x0 DUP1 PUSH1 0x0 PUSH2 0x1A3D PUSH2 0x20AB JUMP JUMPDEST PUSH2 0x1A47 DUP8 DUP8 PUSH2 0x1E05 JUMP JUMPDEST SWAP1 SWAP3 POP SWAP1 POP PUSH1 0x0 DUP3 PUSH1 0x3 DUP2 GT ISZERO PUSH2 0x1A5A JUMPI INVALID JUMPDEST EQ PUSH2 0x1A6B JUMPI POP SWAP2 POP PUSH1 0x0 SWAP1 POP PUSH2 0x1A84 JUMP JUMPDEST PUSH2 0x1A7D PUSH2 0x1A77 DUP3 PUSH2 0x1E6D JUMP JUMPDEST DUP7 PUSH2 0x1A8C JUMP JUMPDEST SWAP4 POP SWAP4 POP POP POP JUMPDEST SWAP4 POP SWAP4 SWAP2 POP POP JUMP JUMPDEST PUSH1 0x0 DUP1 DUP4 DUP4 ADD DUP5 DUP2 LT PUSH2 0x1AA4 JUMPI PUSH1 0x0 SWAP3 POP SWAP1 POP PUSH2 0x1A29 JUMP JUMPDEST POP PUSH1 0x2 SWAP2 POP PUSH1 0x0 SWAP1 POP PUSH2 0x1A29 JUMP JUMPDEST PUSH1 0x0 DUP1 DUP4 PUSH2 0x1AC5 JUMPI POP PUSH1 0x0 SWAP1 POP DUP1 PUSH2 0x1A29 JUMP JUMPDEST DUP4 DUP4 MUL DUP4 DUP6 DUP3 DUP2 PUSH2 0x1AD2 JUMPI INVALID JUMPDEST DIV EQ PUSH2 0x1AE6 JUMPI POP PUSH1 0x2 SWAP2 POP PUSH1 0x0 SWAP1 POP PUSH2 0x1A29 JUMP JUMPDEST PUSH1 0x0 SWAP3 POP SWAP1 POP PUSH2 0x1A29 JUMP JUMPDEST PUSH1 0x0 DUP1 DUP3 PUSH2 0x1B05 JUMPI POP PUSH1 0x1 SWAP1 POP PUSH1 0x0 PUSH2 0x1A29 JUMP JUMPDEST PUSH1 0x0 DUP4 DUP6 DUP2 PUSH2 0x1B10 JUMPI INVALID JUMPDEST DIV SWAP2 POP SWAP2 POP SWAP3 POP SWAP3 SWAP1 POP JUMP JUMPDEST PUSH1 0x0 DUP1 DUP4 DUP4 GT PUSH2 0x1B33 JUMPI POP PUSH1 0x0 SWAP1 POP DUP2 DUP4 SUB PUSH2 0x1A29 JUMP JUMPDEST POP PUSH1 0x3 SWAP1 POP PUSH1 0x0 PUSH2 0x1A29 JUMP JUMPDEST PUSH1 0x0 PUSH32 0x45B96FE442630264581B197E84BBADA861235052C5A1AADFFF9EA4E40A969AA0 DUP4 PUSH1 0x6 DUP2 GT ISZERO PUSH2 0x1B6E JUMPI INVALID JUMPDEST DUP4 PUSH1 0x17 DUP2 GT ISZERO PUSH2 0x1B7A JUMPI INVALID JUMPDEST PUSH1 0x40 DUP1 MLOAD SWAP3 DUP4 MSTORE PUSH1 0x20 DUP4 ADD SWAP2 SWAP1 SWAP2 MSTORE PUSH1 0x0 DUP3 DUP3 ADD MSTORE MLOAD SWAP1 DUP2 SWAP1 SUB PUSH1 0x60 ADD SWAP1 LOG1 DUP3 PUSH1 0x6 DUP2 GT ISZERO PUSH2 0x1BA5 JUMPI INVALID JUMPDEST SWAP4 SWAP3 POP POP POP JUMP JUMPDEST PUSH1 0x0 DUP2 PUSH5 0x100000000 DUP5 LT PUSH2 0x1C3F JUMPI PUSH1 0x40 MLOAD PUSH3 0x461BCD PUSH1 0xE5 SHL DUP2 MSTORE PUSH1 0x4 ADD DUP1 DUP1 PUSH1 0x20 ADD DUP3 DUP2 SUB DUP3 MSTORE DUP4 DUP2 DUP2 MLOAD DUP2 MSTORE PUSH1 0x20 ADD SWAP2 POP DUP1 MLOAD SWAP1 PUSH1 0x20 ADD SWAP1 DUP1 DUP4 DUP4 PUSH1 0x0 JUMPDEST DUP4 DUP2 LT ISZERO PUSH2 0x1C04 JUMPI DUP2 DUP2 ADD MLOAD DUP4 DUP3 ADD MSTORE PUSH1 0x20 ADD PUSH2 0x1BEC JUMP JUMPDEST POP POP POP POP SWAP1 POP SWAP1 DUP2 ADD SWAP1 PUSH1 0x1F AND DUP1 ISZERO PUSH2 0x1C31 JUMPI DUP1 DUP3 SUB DUP1 MLOAD PUSH1 0x1 DUP4 PUSH1 0x20 SUB PUSH2 0x100 EXP SUB NOT AND DUP2 MSTORE PUSH1 0x20 ADD SWAP2 POP JUMPDEST POP SWAP3 POP POP POP PUSH1 0x40 MLOAD DUP1 SWAP2 SUB SWAP1 REVERT JUMPDEST POP SWAP2 SWAP3 SWAP2 POP POP JUMP JUMPDEST PUSH2 0x1C4F PUSH2 0x20AB JUMP JUMPDEST PUSH1 0x40 MLOAD DUP1 PUSH1 0x20 ADD PUSH1 0x40 MSTORE DUP1 PUSH2 0x1C6C DUP6 PUSH1 0x0 ADD MLOAD DUP6 PUSH1 0x0 ADD MLOAD PUSH2 0x1CDA JUMP JUMPDEST SWAP1 MSTORE SWAP4 SWAP3 POP POP POP JUMP JUMPDEST PUSH1 0x0 PUSH15 0xC097CE7BC90715B34B9F1000000000 PUSH2 0x1C95 DUP5 DUP5 PUSH1 0x0 ADD MLOAD PUSH2 0x1D14 JUMP JUMPDEST DUP2 PUSH2 0x1C9C JUMPI INVALID JUMPDEST DIV SWAP4 SWAP3 POP POP POP JUMP JUMPDEST PUSH1 0x0 PUSH2 0x1BA5 DUP4 DUP4 PUSH1 0x40 MLOAD DUP1 PUSH1 0x40 ADD PUSH1 0x40 MSTORE DUP1 PUSH1 0x11 DUP2 MSTORE PUSH1 0x20 ADD PUSH17 0x6164646974696F6E206F766572666C6F77 PUSH1 0x78 SHL DUP2 MSTORE POP PUSH2 0x1E7C JUMP JUMPDEST PUSH1 0x0 PUSH2 0x1BA5 DUP4 DUP4 PUSH1 0x40 MLOAD DUP1 PUSH1 0x40 ADD PUSH1 0x40 MSTORE DUP1 PUSH1 0x15 DUP2 MSTORE PUSH1 0x20 ADD PUSH21 0x7375627472616374696F6E20756E646572666C6F77 PUSH1 0x58 SHL DUP2 MSTORE POP PUSH2 0x1EDA JUMP JUMPDEST PUSH1 0x0 PUSH2 0x1BA5 DUP4 DUP4 PUSH1 0x40 MLOAD DUP1 PUSH1 0x40 ADD PUSH1 0x40 MSTORE DUP1 PUSH1 0x17 DUP2 MSTORE PUSH1 0x20 ADD PUSH32 0x6D756C7469706C69636174696F6E206F766572666C6F77000000000000000000 DUP2 MSTORE POP PUSH2 0x1F34 JUMP JUMPDEST PUSH2 0x1D5E PUSH2 0x20AB JUMP JUMPDEST PUSH1 0x40 MLOAD DUP1 PUSH1 0x20 ADD PUSH1 0x40 MSTORE DUP1 PUSH2 0x1C6C PUSH2 0x1D85 DUP7 PUSH15 0xC097CE7BC90715B34B9F1000000000 PUSH2 0x1D14 JUMP JUMPDEST DUP6 PUSH2 0x1FAA JUMP JUMPDEST PUSH2 0x1D93 PUSH2 0x20AB JUMP JUMPDEST PUSH1 0x40 MLOAD DUP1 PUSH1 0x20 ADD PUSH1 0x40 MSTORE DUP1 PUSH2 0x1C6C DUP6 PUSH1 0x0 ADD MLOAD DUP6 PUSH1 0x0 ADD MLOAD PUSH2 0x1CA4 JUMP JUMPDEST PUSH1 0x0 DUP2 PUSH1 0x1 PUSH1 0xE0 SHL DUP5 LT PUSH2 0x1C3F JUMPI PUSH1 0x40 MLOAD PUSH3 0x461BCD PUSH1 0xE5 SHL DUP2 MSTORE PUSH1 0x20 PUSH1 0x4 DUP3 ADD DUP2 DUP2 MSTORE DUP4 MLOAD PUSH1 0x24 DUP5 ADD MSTORE DUP4 MLOAD SWAP1 SWAP3 DUP4 SWAP3 PUSH1 0x44 SWAP1 SWAP2 ADD SWAP2 SWAP1 DUP6 ADD SWAP1 DUP1 DUP4 DUP4 PUSH1 0x0 DUP4 ISZERO PUSH2 0x1C04 JUMPI DUP2 DUP2 ADD MLOAD DUP4 DUP3 ADD MSTORE PUSH1 0x20 ADD PUSH2 0x1BEC JUMP JUMPDEST PUSH1 0x0 PUSH2 0x1E0F PUSH2 0x20AB JUMP JUMPDEST PUSH1 0x0 DUP1 PUSH2 0x1E20 DUP7 PUSH1 0x0 ADD MLOAD DUP7 PUSH2 0x1AB2 JUMP JUMPDEST SWAP1 SWAP3 POP SWAP1 POP PUSH1 0x0 DUP3 PUSH1 0x3 DUP2 GT ISZERO PUSH2 0x1E33 JUMPI INVALID JUMPDEST EQ PUSH2 0x1E52 JUMPI POP PUSH1 0x40 DUP1 MLOAD PUSH1 0x20 DUP2 ADD SWAP1 SWAP2 MSTORE PUSH1 0x0 DUP2 MSTORE SWAP1 SWAP3 POP SWAP1 POP PUSH2 0x1A29 JUMP JUMPDEST PUSH1 0x40 DUP1 MLOAD PUSH1 0x20 DUP2 ADD SWAP1 SWAP2 MSTORE SWAP1 DUP2 MSTORE PUSH1 0x0 SWAP7 SWAP1 SWAP6 POP SWAP4 POP POP POP POP JUMP JUMPDEST MLOAD PUSH8 0xDE0B6B3A7640000 SWAP1 DIV SWAP1 JUMP JUMPDEST PUSH1 0x0 DUP4 DUP4 ADD DUP3 DUP6 DUP3 LT ISZERO PUSH2 0x1ED1 JUMPI PUSH1 0x40 MLOAD PUSH3 0x461BCD PUSH1 0xE5 SHL DUP2 MSTORE PUSH1 0x20 PUSH1 0x4 DUP3 ADD DUP2 DUP2 MSTORE DUP4 MLOAD PUSH1 0x24 DUP5 ADD MSTORE DUP4 MLOAD SWAP1 SWAP3 DUP4 SWAP3 PUSH1 0x44 SWAP1 SWAP2 ADD SWAP2 SWAP1 DUP6 ADD SWAP1 DUP1 DUP4 DUP4 PUSH1 0x0 DUP4 ISZERO PUSH2 0x1C04 JUMPI DUP2 DUP2 ADD MLOAD DUP4 DUP3 ADD MSTORE PUSH1 0x20 ADD PUSH2 0x1BEC JUMP JUMPDEST POP SWAP5 SWAP4 POP POP POP POP JUMP JUMPDEST PUSH1 0x0 DUP2 DUP5 DUP5 GT ISZERO PUSH2 0x1F2C JUMPI PUSH1 0x40 MLOAD PUSH3 0x461BCD PUSH1 0xE5 SHL DUP2 MSTORE PUSH1 0x20 PUSH1 0x4 DUP3 ADD DUP2 DUP2 MSTORE DUP4 MLOAD PUSH1 0x24 DUP5 ADD MSTORE DUP4 MLOAD SWAP1 SWAP3 DUP4 SWAP3 PUSH1 0x44 SWAP1 SWAP2 ADD SWAP2 SWAP1 DUP6 ADD SWAP1 DUP1 DUP4 DUP4 PUSH1 0x0 DUP4 ISZERO PUSH2 0x1C04 JUMPI DUP2 DUP2 ADD MLOAD DUP4 DUP3 ADD MSTORE PUSH1 0x20 ADD PUSH2 0x1BEC JUMP JUMPDEST POP POP POP SWAP1 SUB SWAP1 JUMP JUMPDEST PUSH1 0x0 DUP4 ISZERO DUP1 PUSH2 0x1F41 JUMPI POP DUP3 ISZERO JUMPDEST ISZERO PUSH2 0x1F4E JUMPI POP PUSH1 0x0 PUSH2 0x1BA5 JUMP JUMPDEST DUP4 DUP4 MUL DUP4 DUP6 DUP3 DUP2 PUSH2 0x1F5B JUMPI INVALID JUMPDEST DIV EQ DUP4 SWAP1 PUSH2 0x1ED1 JUMPI PUSH1 0x40 MLOAD PUSH3 0x461BCD PUSH1 0xE5 SHL DUP2 MSTORE PUSH1 0x20 PUSH1 0x4 DUP3 ADD DUP2 DUP2 MSTORE DUP4 MLOAD PUSH1 0x24 DUP5 ADD MSTORE DUP4 MLOAD SWAP1 SWAP3 DUP4 SWAP3 PUSH1 0x44 SWAP1 SWAP2 ADD SWAP2 SWAP1 DUP6 ADD SWAP1 DUP1 DUP4 DUP4 PUSH1 0x0 DUP4 ISZERO PUSH2 0x1C04 JUMPI DUP2 DUP2 ADD MLOAD DUP4 DUP3 ADD MSTORE PUSH1 0x20 ADD PUSH2 0x1BEC JUMP JUMPDEST PUSH1 0x0 PUSH2 0x1BA5 DUP4 DUP4 PUSH1 0x40 MLOAD DUP1 PUSH1 0x40 ADD PUSH1 0x40 MSTORE DUP1 PUSH1 0xE DUP2 MSTORE PUSH1 0x20 ADD PUSH14 0x646976696465206279207A65726F PUSH1 0x90 SHL DUP2 MSTORE POP PUSH1 0x0 DUP2 DUP4 PUSH2 0x2027 JUMPI PUSH1 0x40 MLOAD PUSH3 0x461BCD PUSH1 0xE5 SHL DUP2 MSTORE PUSH1 0x20 PUSH1 0x4 DUP3 ADD DUP2 DUP2 MSTORE DUP4 MLOAD PUSH1 0x24 DUP5 ADD MSTORE DUP4 MLOAD SWAP1 SWAP3 DUP4 SWAP3 PUSH1 0x44 SWAP1 SWAP2 ADD SWAP2 SWAP1 DUP6 ADD SWAP1 DUP1 DUP4 DUP4 PUSH1 0x0 DUP4 ISZERO PUSH2 0x1C04 JUMPI DUP2 DUP2 ADD MLOAD DUP4 DUP3 ADD MSTORE PUSH1 0x20 ADD PUSH2 0x1BEC JUMP JUMPDEST POP DUP3 DUP5 DUP2 PUSH2 0x2031 JUMPI INVALID JUMPDEST DIV SWAP5 SWAP4 POP POP POP POP JUMP JUMPDEST PUSH1 0x40 MLOAD DUP1 PUSH2 0x160 ADD PUSH1 0x40 MSTORE DUP1 PUSH1 0x0 DUP2 MSTORE PUSH1 0x20 ADD PUSH1 0x0 DUP2 MSTORE PUSH1 0x20 ADD PUSH1 0x0 DUP2 MSTORE PUSH1 0x20 ADD PUSH1 0x0 DUP2 MSTORE PUSH1 0x20 ADD PUSH1 0x0 DUP2 MSTORE PUSH1 0x20 ADD PUSH1 0x0 DUP2 MSTORE PUSH1 0x20 ADD PUSH1 0x0 DUP2 MSTORE PUSH1 0x20 ADD PUSH2 0x207F PUSH2 0x20AB JUMP JUMPDEST DUP2 MSTORE PUSH1 0x20 ADD PUSH2 0x208C PUSH2 0x20AB JUMP JUMPDEST DUP2 MSTORE PUSH1 0x20 ADD PUSH2 0x2099 PUSH2 0x20AB JUMP JUMPDEST DUP2 MSTORE PUSH1 0x20 ADD PUSH2 0x20A6 PUSH2 0x20AB JUMP JUMPDEST SWAP1 MSTORE SWAP1 JUMP JUMPDEST PUSH1 0x40 MLOAD DUP1 PUSH1 0x20 ADD PUSH1 0x40 MSTORE DUP1 PUSH1 0x0 DUP2 MSTORE POP SWAP1 JUMP INVALID JUMP COINBASE 0x49 0x5F 0x4D 0x49 0x4E SLOAD 0x5F COINBASE 0x4D 0x4F SSTORE 0x4E SLOAD 0x5F NUMBER COINBASE 0x4C NUMBER SSTORE 0x4C COINBASE SLOAD 0x49 0x4F 0x4E 0x5F CHAINID COINBASE 0x49 0x4C GASLIMIT DIFFICULTY PUSH16 0x6E6C7920756E6974726F6C6C65722061 PUSH5 0x6D696E2063 PUSH2 0x6E20 PUSH4 0x68616E67 PUSH6 0x20627261696E PUSH20 0xA265627A7A723158206D274A6D9BC8070036A6B2 SWAP9 0xAA PUSH25 0x4856F2383AAEF262B05283CAAA370AFBF86D64736F6C634300 SDIV GT STOP ORIGIN "
		},
		"gasEstimates": {
			"creation": {
				"codeDepositCost": "1701600",
				"executionCost": "22621",
				"totalCost": "1724221"
			},
			"external": {
				"_become(address)": "infinite",
				"_initializeVenusVAIState(uint256)": "infinite",
				"_setComptroller(address)": "23399",
				"admin()": "1147",
				"calcDistributeVAIMinterVenus(address)": "infinite",
				"comptroller()": "1060",
				"getBlockNumber()": "242",
				"getMintableVAI(address)": "infinite",
				"getVAIAddress()": "241",
				"isVenusVAIInitialized()": "1055",
				"mintVAI(uint256)": "infinite",
				"pendingAdmin()": "1127",
				"pendingVAIControllerImplementation()": "1126",
				"repayVAI(uint256)": "infinite",
				"updateVenusVAIMintIndex()": "infinite",
				"vaiControllerImplementation()": "1061",
				"venusInitialIndex()": "330",
				"venusVAIMinterIndex(address)": "1192",
				"venusVAIState()": "1181"
			}
		},
		"methodIdentifiers": {
			"_become(address)": "1d504dc6",
			"_initializeVenusVAIState(uint256)": "5035920a",
			"_setComptroller(address)": "4576b5db",
			"admin()": "f851a440",
			"calcDistributeVAIMinterVenus(address)": "d178273b",
			"comptroller()": "5fe3b567",
			"getBlockNumber()": "42cbb15c",
			"getMintableVAI(address)": "3785d1d6",
			"getVAIAddress()": "cbeb2b28",
			"isVenusVAIInitialized()": "60c954ef",
			"mintVAI(uint256)": "4712ee7d",
			"pendingAdmin()": "26782247",
			"pendingVAIControllerImplementation()": "b06bb426",
			"repayVAI(uint256)": "6fe74a21",
			"updateVenusVAIMintIndex()": "d244b081",
			"vaiControllerImplementation()": "003b5884",
			"venusInitialIndex()": "c5b4db55",
			"venusVAIMinterIndex(address)": "24650602",
			"venusVAIState()": "e44e6168"
		}
	},
	"abi": [
		{
			"anonymous": false,
			"inputs": [
				{
					"indexed": false,
					"internalType": "uint256",
					"name": "error",
					"type": "uint256"
				},
				{
					"indexed": false,
					"internalType": "uint256",
					"name": "info",
					"type": "uint256"
				},
				{
					"indexed": false,
					"internalType": "uint256",
					"name": "detail",
					"type": "uint256"
				}
			],
			"name": "Failure",
			"type": "event"
		},
		{
			"anonymous": false,
			"inputs": [
				{
					"indexed": false,
					"internalType": "address",
					"name": "minter",
					"type": "address"
				},
				{
					"indexed": false,
					"internalType": "uint256",
					"name": "mintVAIAmount",
					"type": "uint256"
				}
			],
			"name": "MintVAI",
			"type": "event"
		},
		{
			"anonymous": false,
			"inputs": [
				{
					"indexed": false,
					"internalType": "contract ComptrollerInterface",
					"name": "oldComptroller",
					"type": "address"
				},
				{
					"indexed": false,
					"internalType": "contract ComptrollerInterface",
					"name": "newComptroller",
					"type": "address"
				}
			],
			"name": "NewComptroller",
			"type": "event"
		},
		{
			"anonymous": false,
			"inputs": [
				{
					"indexed": false,
					"internalType": "address",
					"name": "repayer",
					"type": "address"
				},
				{
					"indexed": false,
					"internalType": "uint256",
					"name": "repayVAIAmount",
					"type": "uint256"
				}
			],
			"name": "RepayVAI",
			"type": "event"
		},
		{
			"constant": false,
			"inputs": [
				{
					"internalType": "contract VAIUnitroller",
					"name": "unitroller",
					"type": "address"
				}
			],
			"name": "_become",
			"outputs": [],
			"payable": false,
			"stateMutability": "nonpayable",
			"type": "function"
		},
		{
			"constant": false,
			"inputs": [
				{
					"internalType": "uint256",
					"name": "blockNumber",
					"type": "uint256"
				}
			],
			"name": "_initializeVenusVAIState",
			"outputs": [
				{
					"internalType": "uint256",
					"name": "",
					"type": "uint256"
				}
			],
			"payable": false,
			"stateMutability": "nonpayable",
			"type": "function"
		},
		{
			"constant": false,
			"inputs": [
				{
					"internalType": "contract ComptrollerInterface",
					"name": "comptroller_",
					"type": "address"
				}
			],
			"name": "_setComptroller",
			"outputs": [
				{
					"internalType": "uint256",
					"name": "",
					"type": "uint256"
				}
			],
			"payable": false,
			"stateMutability": "nonpayable",
			"type": "function"
		},
		{
			"constant": true,
			"inputs": [],
			"name": "admin",
			"outputs": [
				{
					"internalType": "address",
					"name": "",
					"type": "address"
				}
			],
			"payable": false,
			"stateMutability": "view",
			"type": "function"
		},
		{
			"constant": false,
			"inputs": [
				{
					"internalType": "address",
					"name": "vaiMinter",
					"type": "address"
				}
			],
			"name": "calcDistributeVAIMinterVenus",
			"outputs": [
				{
					"internalType": "uint256",
					"name": "",
					"type": "uint256"
				},
				{
					"internalType": "uint256",
					"name": "",
					"type": "uint256"
				},
				{
					"internalType": "uint256",
					"name": "",
					"type": "uint256"
				},
				{
					"internalType": "uint256",
					"name": "",
					"type": "uint256"
				}
			],
			"payable": false,
			"stateMutability": "nonpayable",
			"type": "function"
		},
		{
			"constant": true,
			"inputs": [],
			"name": "comptroller",
			"outputs": [
				{
					"internalType": "contract ComptrollerInterface",
					"name": "",
					"type": "address"
				}
			],
			"payable": false,
			"stateMutability": "view",
			"type": "function"
		},
		{
			"constant": true,
			"inputs": [],
			"name": "getBlockNumber",
			"outputs": [
				{
					"internalType": "uint256",
					"name": "",
					"type": "uint256"
				}
			],
			"payable": false,
			"stateMutability": "view",
			"type": "function"
		},
		{
			"constant": true,
			"inputs": [
				{
					"internalType": "address",
					"name": "minter",
					"type": "address"
				}
			],
			"name": "getMintableVAI",
			"outputs": [
				{
					"internalType": "uint256",
					"name": "",
					"type": "uint256"
				},
				{
					"internalType": "uint256",
					"name": "",
					"type": "uint256"
				}
			],
			"payable": false,
			"stateMutability": "view",
			"type": "function"
		},
		{
			"constant": true,
			"inputs": [],
			"name": "getVAIAddress",
			"outputs": [
				{
					"internalType": "address",
					"name": "",
					"type": "address"
				}
			],
			"payable": false,
			"stateMutability": "view",
			"type": "function"
		},
		{
			"constant": true,
			"inputs": [],
			"name": "isVenusVAIInitialized",
			"outputs": [
				{
					"internalType": "bool",
					"name": "",
					"type": "bool"
				}
			],
			"payable": false,
			"stateMutability": "view",
			"type": "function"
		},
		{
			"constant": false,
			"inputs": [
				{
					"internalType": "uint256",
					"name": "mintVAIAmount",
					"type": "uint256"
				}
			],
			"name": "mintVAI",
			"outputs": [
				{
					"internalType": "uint256",
					"name": "",
					"type": "uint256"
				}
			],
			"payable": false,
			"stateMutability": "nonpayable",
			"type": "function"
		},
		{
			"constant": true,
			"inputs": [],
			"name": "pendingAdmin",
			"outputs": [
				{
					"internalType": "address",
					"name": "",
					"type": "address"
				}
			],
			"payable": false,
			"stateMutability": "view",
			"type": "function"
		},
		{
			"constant": true,
			"inputs": [],
			"name": "pendingVAIControllerImplementation",
			"outputs": [
				{
					"internalType": "address",
					"name": "",
					"type": "address"
				}
			],
			"payable": false,
			"stateMutability": "view",
			"type": "function"
		},
		{
			"constant": false,
			"inputs": [
				{
					"internalType": "uint256",
					"name": "repayVAIAmount",
					"type": "uint256"
				}
			],
			"name": "repayVAI",
			"outputs": [
				{
					"internalType": "uint256",
					"name": "",
					"type": "uint256"
				}
			],
			"payable": false,
			"stateMutability": "nonpayable",
			"type": "function"
		},
		{
			"constant": false,
			"inputs": [],
			"name": "updateVenusVAIMintIndex",
			"outputs": [
				{
					"internalType": "uint256",
					"name": "",
					"type": "uint256"
				}
			],
			"payable": false,
			"stateMutability": "nonpayable",
			"type": "function"
		},
		{
			"constant": true,
			"inputs": [],
			"name": "vaiControllerImplementation",
			"outputs": [
				{
					"internalType": "address",
					"name": "",
					"type": "address"
				}
			],
			"payable": false,
			"stateMutability": "view",
			"type": "function"
		},
		{
			"constant": true,
			"inputs": [],
			"name": "venusInitialIndex",
			"outputs": [
				{
					"internalType": "uint224",
					"name": "",
					"type": "uint224"
				}
			],
			"payable": false,
			"stateMutability": "view",
			"type": "function"
		},
		{
			"constant": true,
			"inputs": [
				{
					"internalType": "address",
					"name": "",
					"type": "address"
				}
			],
			"name": "venusVAIMinterIndex",
			"outputs": [
				{
					"internalType": "uint256",
					"name": "",
					"type": "uint256"
				}
			],
			"payable": false,
			"stateMutability": "view",
			"type": "function"
		},
		{
			"constant": true,
			"inputs": [],
			"name": "venusVAIState",
			"outputs": [
				{
					"internalType": "uint224",
					"name": "index",
					"type": "uint224"
				},
				{
					"internalType": "uint32",
					"name": "block",
					"type": "uint32"
				}
			],
			"payable": false,
			"stateMutability": "view",
			"type": "function"
		}
	]
}