{
	"data": {
		"bytecode": {
			"linkReferences": {},
			"object": "6080604052600080546001600160a01b03191673931f176bee590f13ca2b9d163c135f065c7a22cc17905534801561003657600080fd5b5061020d806100466000396000f3fe608060405234801561001057600080fd5b50600436106100875760003560e01c806360c954ef1161005b57806360c954ef146100f8578063b06bb42614610114578063e44e61681461011c578063f851a4401461014c57610087565b80623b58841461008c57806324650602146100b057806326782247146100e85780635fe3b567146100f0575b600080fd5b610094610154565b604080516001600160a01b039092168252519081900360200190f35b6100d6600480360360208110156100c657600080fd5b50356001600160a01b0316610163565b60408051918252519081900360200190f35b610094610175565b610094610184565b610100610193565b604080519115158252519081900360200190f35b61009461019c565b6101246101ab565b604080516001600160e01b03909316835263ffffffff90911660208301528051918290030190f35b6100946101c9565b6002546001600160a01b031681565b60076020526000908152604090205481565b6001546001600160a01b031681565b6004546001600160a01b031681565b60065460ff1681565b6003546001600160a01b031681565b6005546001600160e01b03811690600160e01b900463ffffffff1682565b6000546001600160a01b03168156fea265627a7a7231582029b0a0b0a092e9655968e6d03f6cb4b71470e7805f1b54e493d835fe5cf7c5bb64736f6c63430005110032",
			"opcodes": "PUSH1 0x80 PUSH1 0x40 MSTORE PUSH1 0x0 DUP1 SLOAD PUSH1 0x1 PUSH1 0x1 PUSH1 0xA0 SHL SUB NOT AND PUSH20 0x931F176BEE590F13CA2B9D163C135F065C7A22CC OR SWAP1 SSTORE CALLVALUE DUP1 ISZERO PUSH2 0x36 JUMPI PUSH1 0x0 DUP1 REVERT JUMPDEST POP PUSH2 0x20D DUP1 PUSH2 0x46 PUSH1 0x0 CODECOPY PUSH1 0x0 RETURN INVALID PUSH1 0x80 PUSH1 0x40 MSTORE CALLVALUE DUP1 ISZERO PUSH2 0x10 JUMPI PUSH1 0x0 DUP1 REVERT JUMPDEST POP PUSH1 0x4 CALLDATASIZE LT PUSH2 0x87 JUMPI PUSH1 0x0 CALLDATALOAD PUSH1 0xE0 SHR DUP1 PUSH4 0x60C954EF GT PUSH2 0x5B JUMPI DUP1 PUSH4 0x60C954EF EQ PUSH2 0xF8 JUMPI DUP1 PUSH4 0xB06BB426 EQ PUSH2 0x114 JUMPI DUP1 PUSH4 0xE44E6168 EQ PUSH2 0x11C JUMPI DUP1 PUSH4 0xF851A440 EQ PUSH2 0x14C JUMPI PUSH2 0x87 JUMP JUMPDEST DUP1 PUSH3 0x3B5884 EQ PUSH2 0x8C JUMPI DUP1 PUSH4 0x24650602 EQ PUSH2 0xB0 JUMPI DUP1 PUSH4 0x26782247 EQ PUSH2 0xE8 JUMPI DUP1 PUSH4 0x5FE3B567 EQ PUSH2 0xF0 JUMPI JUMPDEST PUSH1 0x0 DUP1 REVERT JUMPDEST PUSH2 0x94 PUSH2 0x154 JUMP JUMPDEST PUSH1 0x40 DUP1 MLOAD PUSH1 0x1 PUSH1 0x1 PUSH1 0xA0 SHL SUB SWAP1 SWAP3 AND DUP3 MSTORE MLOAD SWAP1 DUP2 SWAP1 SUB PUSH1 0x20 ADD SWAP1 RETURN JUMPDEST PUSH2 0xD6 PUSH1 0x4 DUP1 CALLDATASIZE SUB PUSH1 0x20 DUP2 LT ISZERO PUSH2 0xC6 JUMPI PUSH1 0x0 DUP1 REVERT JUMPDEST POP CALLDATALOAD PUSH1 0x1 PUSH1 0x1 PUSH1 0xA0 SHL SUB AND PUSH2 0x163 JUMP JUMPDEST PUSH1 0x40 DUP1 MLOAD SWAP2 DUP3 MSTORE MLOAD SWAP1 DUP2 SWAP1 SUB PUSH1 0x20 ADD SWAP1 RETURN JUMPDEST PUSH2 0x94 PUSH2 0x175 JUMP JUMPDEST PUSH2 0x94 PUSH2 0x184 JUMP JUMPDEST PUSH2 0x100 PUSH2 0x193 JUMP JUMPDEST PUSH1 0x40 DUP1 MLOAD SWAP2 ISZERO ISZERO DUP3 MSTORE MLOAD SWAP1 DUP2 SWAP1 SUB PUSH1 0x20 ADD SWAP1 RETURN JUMPDEST PUSH2 0x94 PUSH2 0x19C JUMP JUMPDEST PUSH2 0x124 PUSH2 0x1AB JUMP JUMPDEST PUSH1 0x40 DUP1 MLOAD PUSH1 0x1 PUSH1 0x1 PUSH1 0xE0 SHL SUB SWAP1 SWAP4 AND DUP4 MSTORE PUSH4 0xFFFFFFFF SWAP1 SWAP2 AND PUSH1 0x20 DUP4 ADD MSTORE DUP1 MLOAD SWAP2 DUP3 SWAP1 SUB ADD SWAP1 RETURN JUMPDEST PUSH2 0x94 PUSH2 0x1C9 JUMP JUMPDEST PUSH1 0x2 SLOAD PUSH1 0x1 PUSH1 0x1 PUSH1 0xA0 SHL SUB AND DUP2 JUMP JUMPDEST PUSH1 0x7 PUSH1 0x20 MSTORE PUSH1 0x0 SWAP1 DUP2 MSTORE PUSH1 0x40 SWAP1 KECCAK256 SLOAD DUP2 JUMP JUMPDEST PUSH1 0x1 SLOAD PUSH1 0x1 PUSH1 0x1 PUSH1 0xA0 SHL SUB AND DUP2 JUMP JUMPDEST PUSH1 0x4 SLOAD PUSH1 0x1 PUSH1 0x1 PUSH1 0xA0 SHL SUB AND DUP2 JUMP JUMPDEST PUSH1 0x6 SLOAD PUSH1 0xFF AND DUP2 JUMP JUMPDEST PUSH1 0x3 SLOAD PUSH1 0x1 PUSH1 0x1 PUSH1 0xA0 SHL SUB AND DUP2 JUMP JUMPDEST PUSH1 0x5 SLOAD PUSH1 0x1 PUSH1 0x1 PUSH1 0xE0 SHL SUB DUP2 AND SWAP1 PUSH1 0x1 PUSH1 0xE0 SHL SWAP1 DIV PUSH4 0xFFFFFFFF AND DUP3 JUMP JUMPDEST PUSH1 0x0 SLOAD PUSH1 0x1 PUSH1 0x1 PUSH1 0xA0 SHL SUB AND DUP2 JUMP INVALID LOG2 PUSH6 0x627A7A723158 KECCAK256 0x29 0xB0 LOG0 0xB0 LOG0 SWAP3 0xE9 PUSH6 0x5968E6D03F6C 0xB4 0xB7 EQ PUSH17 0xE7805F1B54E493D835FE5CF7C5BB64736F PUSH13 0x63430005110032000000000000 "
		},
		"gasEstimates": {
			"creation": {
				"codeDepositCost": "105000",
				"executionCost": "20989",
				"totalCost": "125989"
			},
			"external": {
				"admin()": "1103",
				"comptroller()": "1104",
				"isVenusVAIInitialized()": "1010",
				"pendingAdmin()": "1082",
				"pendingVAIControllerImplementation()": "1059",
				"vaiControllerImplementation()": "1038",
				"venusVAIMinterIndex(address)": "1147",
				"venusVAIState()": "1137"
			}
		},
		"methodIdentifiers": {
			"admin()": "f851a440",
			"comptroller()": "5fe3b567",
			"isVenusVAIInitialized()": "60c954ef",
			"pendingAdmin()": "26782247",
			"pendingVAIControllerImplementation()": "b06bb426",
			"vaiControllerImplementation()": "003b5884",
			"venusVAIMinterIndex(address)": "24650602",
			"venusVAIState()": "e44e6168"
		}
	},
	"abi": [
		{
			"constant": true,
			"inputs": [],
			"name": "admin",
			"outputs": [
				{
					"internalType": "address",
					"name": "",
					"type": "address"
				}
			],
			"payable": false,
			"stateMutability": "view",
			"type": "function"
		},
		{
			"constant": true,
			"inputs": [],
			"name": "comptroller",
			"outputs": [
				{
					"internalType": "contract ComptrollerInterface",
					"name": "",
					"type": "address"
				}
			],
			"payable": false,
			"stateMutability": "view",
			"type": "function"
		},
		{
			"constant": true,
			"inputs": [],
			"name": "isVenusVAIInitialized",
			"outputs": [
				{
					"internalType": "bool",
					"name": "",
					"type": "bool"
				}
			],
			"payable": false,
			"stateMutability": "view",
			"type": "function"
		},
		{
			"constant": true,
			"inputs": [],
			"name": "pendingAdmin",
			"outputs": [
				{
					"internalType": "address",
					"name": "",
					"type": "address"
				}
			],
			"payable": false,
			"stateMutability": "view",
			"type": "function"
		},
		{
			"constant": true,
			"inputs": [],
			"name": "pendingVAIControllerImplementation",
			"outputs": [
				{
					"internalType": "address",
					"name": "",
					"type": "address"
				}
			],
			"payable": false,
			"stateMutability": "view",
			"type": "function"
		},
		{
			"constant": true,
			"inputs": [],
			"name": "vaiControllerImplementation",
			"outputs": [
				{
					"internalType": "address",
					"name": "",
					"type": "address"
				}
			],
			"payable": false,
			"stateMutability": "view",
			"type": "function"
		},
		{
			"constant": true,
			"inputs": [
				{
					"internalType": "address",
					"name": "",
					"type": "address"
				}
			],
			"name": "venusVAIMinterIndex",
			"outputs": [
				{
					"internalType": "uint256",
					"name": "",
					"type": "uint256"
				}
			],
			"payable": false,
			"stateMutability": "view",
			"type": "function"
		},
		{
			"constant": true,
			"inputs": [],
			"name": "venusVAIState",
			"outputs": [
				{
					"internalType": "uint224",
					"name": "index",
					"type": "uint224"
				},
				{
					"internalType": "uint32",
					"name": "block",
					"type": "uint32"
				}
			],
			"payable": false,
			"stateMutability": "view",
			"type": "function"
		}
	]
}