{
	"data": {
		"bytecode": {
			"linkReferences": {},
			"object": "6080604052600080546001600160a01b03191673931f176bee590f13ca2b9d163c135f065c7a22cc17905534801561003657600080fd5b5061026a806100466000396000f3fe608060405234801561001057600080fd5b50600436106100a85760003560e01c806360c954ef1161007157806360c954ef14610121578063b06bb4261461013d578063b2eafc3914610145578063c5f956af1461014d578063e44e616814610155578063f851a44014610185576100a8565b80623b5884146100ad57806304ef9d58146100d157806324650602146100eb57806326782247146101115780635fe3b56714610119575b600080fd5b6100b561018d565b604080516001600160a01b039092168252519081900360200190f35b6100d961019c565b60408051918252519081900360200190f35b6100d96004803603602081101561010157600080fd5b50356001600160a01b03166101a2565b6100b56101b4565b6100b56101c3565b6101296101d2565b604080519115158252519081900360200190f35b6100b56101db565b6100b56101ea565b6100b56101f9565b61015d610208565b604080516001600160e01b03909316835263ffffffff90911660208301528051918290030190f35b6100b5610226565b6002546001600160a01b031681565b600a5481565b60076020526000908152604090205481565b6001546001600160a01b031681565b6004546001600160a01b031681565b60065460ff1681565b6003546001600160a01b031681565b6008546001600160a01b031681565b6009546001600160a01b031681565b6005546001600160e01b03811690600160e01b900463ffffffff1682565b6000546001600160a01b03168156fea265627a7a723158202c0a761843bce25ad131f184966cf25e175b10498a514db23f4ac7cebbd01c4364736f6c63430005110032",
			"opcodes": "PUSH1 0x80 PUSH1 0x40 MSTORE PUSH1 0x0 DUP1 SLOAD PUSH1 0x1 PUSH1 0x1 PUSH1 0xA0 SHL SUB NOT AND PUSH20 0x931F176BEE590F13CA2B9D163C135F065C7A22CC OR SWAP1 SSTORE CALLVALUE DUP1 ISZERO PUSH2 0x36 JUMPI PUSH1 0x0 DUP1 REVERT JUMPDEST POP PUSH2 0x26A DUP1 PUSH2 0x46 PUSH1 0x0 CODECOPY PUSH1 0x0 RETURN INVALID PUSH1 0x80 PUSH1 0x40 MSTORE CALLVALUE DUP1 ISZERO PUSH2 0x10 JUMPI PUSH1 0x0 DUP1 REVERT JUMPDEST POP PUSH1 0x4 CALLDATASIZE LT PUSH2 0xA8 JUMPI PUSH1 0x0 CALLDATALOAD PUSH1 0xE0 SHR DUP1 PUSH4 0x60C954EF GT PUSH2 0x71 JUMPI DUP1 PUSH4 0x60C954EF EQ PUSH2 0x121 JUMPI DUP1 PUSH4 0xB06BB426 EQ PUSH2 0x13D JUMPI DUP1 PUSH4 0xB2EAFC39 EQ PUSH2 0x145 JUMPI DUP1 PUSH4 0xC5F956AF EQ PUSH2 0x14D JUMPI DUP1 PUSH4 0xE44E6168 EQ PUSH2 0x155 JUMPI DUP1 PUSH4 0xF851A440 EQ PUSH2 0x185 JUMPI PUSH2 0xA8 JUMP JUMPDEST DUP1 PUSH3 0x3B5884 EQ PUSH2 0xAD JUMPI DUP1 PUSH4 0x4EF9D58 EQ PUSH2 0xD1 JUMPI DUP1 PUSH4 0x24650602 EQ PUSH2 0xEB JUMPI DUP1 PUSH4 0x26782247 EQ PUSH2 0x111 JUMPI DUP1 PUSH4 0x5FE3B567 EQ PUSH2 0x119 JUMPI JUMPDEST PUSH1 0x0 DUP1 REVERT JUMPDEST PUSH2 0xB5 PUSH2 0x18D JUMP JUMPDEST PUSH1 0x40 DUP1 MLOAD PUSH1 0x1 PUSH1 0x1 PUSH1 0xA0 SHL SUB SWAP1 SWAP3 AND DUP3 MSTORE MLOAD SWAP1 DUP2 SWAP1 SUB PUSH1 0x20 ADD SWAP1 RETURN JUMPDEST PUSH2 0xD9 PUSH2 0x19C JUMP JUMPDEST PUSH1 0x40 DUP1 MLOAD SWAP2 DUP3 MSTORE MLOAD SWAP1 DUP2 SWAP1 SUB PUSH1 0x20 ADD SWAP1 RETURN JUMPDEST PUSH2 0xD9 PUSH1 0x4 DUP1 CALLDATASIZE SUB PUSH1 0x20 DUP2 LT ISZERO PUSH2 0x101 JUMPI PUSH1 0x0 DUP1 REVERT JUMPDEST POP CALLDATALOAD PUSH1 0x1 PUSH1 0x1 PUSH1 0xA0 SHL SUB AND PUSH2 0x1A2 JUMP JUMPDEST PUSH2 0xB5 PUSH2 0x1B4 JUMP JUMPDEST PUSH2 0xB5 PUSH2 0x1C3 JUMP JUMPDEST PUSH2 0x129 PUSH2 0x1D2 JUMP JUMPDEST PUSH1 0x40 DUP1 MLOAD SWAP2 ISZERO ISZERO DUP3 MSTORE MLOAD SWAP1 DUP2 SWAP1 SUB PUSH1 0x20 ADD SWAP1 RETURN JUMPDEST PUSH2 0xB5 PUSH2 0x1DB JUMP JUMPDEST PUSH2 0xB5 PUSH2 0x1EA JUMP JUMPDEST PUSH2 0xB5 PUSH2 0x1F9 JUMP JUMPDEST PUSH2 0x15D PUSH2 0x208 JUMP JUMPDEST PUSH1 0x40 DUP1 MLOAD PUSH1 0x1 PUSH1 0x1 PUSH1 0xE0 SHL SUB SWAP1 SWAP4 AND DUP4 MSTORE PUSH4 0xFFFFFFFF SWAP1 SWAP2 AND PUSH1 0x20 DUP4 ADD MSTORE DUP1 MLOAD SWAP2 DUP3 SWAP1 SUB ADD SWAP1 RETURN JUMPDEST PUSH2 0xB5 PUSH2 0x226 JUMP JUMPDEST PUSH1 0x2 SLOAD PUSH1 0x1 PUSH1 0x1 PUSH1 0xA0 SHL SUB AND DUP2 JUMP JUMPDEST PUSH1 0xA SLOAD DUP2 JUMP JUMPDEST PUSH1 0x7 PUSH1 0x20 MSTORE PUSH1 0x0 SWAP1 DUP2 MSTORE PUSH1 0x40 SWAP1 KECCAK256 SLOAD DUP2 JUMP JUMPDEST PUSH1 0x1 SLOAD PUSH1 0x1 PUSH1 0x1 PUSH1 0xA0 SHL SUB AND DUP2 JUMP JUMPDEST PUSH1 0x4 SLOAD PUSH1 0x1 PUSH1 0x1 PUSH1 0xA0 SHL SUB AND DUP2 JUMP JUMPDEST PUSH1 0x6 SLOAD PUSH1 0xFF AND DUP2 JUMP JUMPDEST PUSH1 0x3 SLOAD PUSH1 0x1 PUSH1 0x1 PUSH1 0xA0 SHL SUB AND DUP2 JUMP JUMPDEST PUSH1 0x8 SLOAD PUSH1 0x1 PUSH1 0x1 PUSH1 0xA0 SHL SUB AND DUP2 JUMP JUMPDEST PUSH1 0x9 SLOAD PUSH1 0x1 PUSH1 0x1 PUSH1 0xA0 SHL SUB AND DUP2 JUMP JUMPDEST PUSH1 0x5 SLOAD PUSH1 0x1 PUSH1 0x1 PUSH1 0xE0 SHL SUB DUP2 AND SWAP1 PUSH1 0x1 PUSH1 0xE0 SHL SWAP1 DIV PUSH4 0xFFFFFFFF AND DUP3 JUMP JUMPDEST PUSH1 0x0 SLOAD PUSH1 0x1 PUSH1 0x1 PUSH1 0xA0 SHL SUB AND DUP2 JUMP INVALID LOG2 PUSH6 0x627A7A723158 KECCAK256 0x2C EXP PUSH23 0x1843BCE25AD131F184966CF25E175B10498A514DB23F4A 0xC7 0xCE 0xBB 0xD0 SHR NUMBER PUSH5 0x736F6C6343 STOP SDIV GT STOP ORIGIN "
		},
		"gasEstimates": {
			"creation": {
				"codeDepositCost": "123600",
				"executionCost": "21007",
				"totalCost": "144607"
			},
			"external": {
				"admin()": "1147",
				"comptroller()": "1126",
				"isVenusVAIInitialized()": "1010",
				"pendingAdmin()": "1104",
				"pendingVAIControllerImplementation()": "1059",
				"treasuryAddress()": "1103",
				"treasuryGuardian()": "1081",
				"treasuryPercent()": "1021",
				"vaiControllerImplementation()": "1038",
				"venusVAIMinterIndex(address)": "1169",
				"venusVAIState()": "1181"
			}
		},
		"methodIdentifiers": {
			"admin()": "f851a440",
			"comptroller()": "5fe3b567",
			"isVenusVAIInitialized()": "60c954ef",
			"pendingAdmin()": "26782247",
			"pendingVAIControllerImplementation()": "b06bb426",
			"treasuryAddress()": "c5f956af",
			"treasuryGuardian()": "b2eafc39",
			"treasuryPercent()": "04ef9d58",
			"vaiControllerImplementation()": "003b5884",
			"venusVAIMinterIndex(address)": "24650602",
			"venusVAIState()": "e44e6168"
		}
	},
	"abi": [
		{
			"constant": true,
			"inputs": [],
			"name": "admin",
			"outputs": [
				{
					"internalType": "address",
					"name": "",
					"type": "address"
				}
			],
			"payable": false,
			"stateMutability": "view",
			"type": "function"
		},
		{
			"constant": true,
			"inputs": [],
			"name": "comptroller",
			"outputs": [
				{
					"internalType": "contract ComptrollerInterface",
					"name": "",
					"type": "address"
				}
			],
			"payable": false,
			"stateMutability": "view",
			"type": "function"
		},
		{
			"constant": true,
			"inputs": [],
			"name": "isVenusVAIInitialized",
			"outputs": [
				{
					"internalType": "bool",
					"name": "",
					"type": "bool"
				}
			],
			"payable": false,
			"stateMutability": "view",
			"type": "function"
		},
		{
			"constant": true,
			"inputs": [],
			"name": "pendingAdmin",
			"outputs": [
				{
					"internalType": "address",
					"name": "",
					"type": "address"
				}
			],
			"payable": false,
			"stateMutability": "view",
			"type": "function"
		},
		{
			"constant": true,
			"inputs": [],
			"name": "pendingVAIControllerImplementation",
			"outputs": [
				{
					"internalType": "address",
					"name": "",
					"type": "address"
				}
			],
			"payable": false,
			"stateMutability": "view",
			"type": "function"
		},
		{
			"constant": true,
			"inputs": [],
			"name": "treasuryAddress",
			"outputs": [
				{
					"internalType": "address",
					"name": "",
					"type": "address"
				}
			],
			"payable": false,
			"stateMutability": "view",
			"type": "function"
		},
		{
			"constant": true,
			"inputs": [],
			"name": "treasuryGuardian",
			"outputs": [
				{
					"internalType": "address",
					"name": "",
					"type": "address"
				}
			],
			"payable": false,
			"stateMutability": "view",
			"type": "function"
		},
		{
			"constant": true,
			"inputs": [],
			"name": "treasuryPercent",
			"outputs": [
				{
					"internalType": "uint256",
					"name": "",
					"type": "uint256"
				}
			],
			"payable": false,
			"stateMutability": "view",
			"type": "function"
		},
		{
			"constant": true,
			"inputs": [],
			"name": "vaiControllerImplementation",
			"outputs": [
				{
					"internalType": "address",
					"name": "",
					"type": "address"
				}
			],
			"payable": false,
			"stateMutability": "view",
			"type": "function"
		},
		{
			"constant": true,
			"inputs": [
				{
					"internalType": "address",
					"name": "",
					"type": "address"
				}
			],
			"name": "venusVAIMinterIndex",
			"outputs": [
				{
					"internalType": "uint256",
					"name": "",
					"type": "uint256"
				}
			],
			"payable": false,
			"stateMutability": "view",
			"type": "function"
		},
		{
			"constant": true,
			"inputs": [],
			"name": "venusVAIState",
			"outputs": [
				{
					"internalType": "uint224",
					"name": "index",
					"type": "uint224"
				},
				{
					"internalType": "uint32",
					"name": "block",
					"type": "uint32"
				}
			],
			"payable": false,
			"stateMutability": "view",
			"type": "function"
		}
	]
}