{
	"data": {
		"bytecode": {
			"linkReferences": {},
			"object": "6080604052600080546001600160a01b03191673931f176bee590f13ca2b9d163c135f065c7a22cc17905534801561003657600080fd5b5060ef806100456000396000f3fe6080604052348015600f57600080fd5b506004361060455760003560e01c80623b588414604a5780632678224714606c578063b06bb426146072578063f851a440146078575b600080fd5b6050607e565b604080516001600160a01b039092168252519081900360200190f35b6050608d565b6050609c565b605060ab565b6002546001600160a01b031681565b6001546001600160a01b031681565b6003546001600160a01b031681565b6000546001600160a01b03168156fea265627a7a7231582075c350944c154b3a2c379c7090b192fabaa5f29f9767ea1d29985b02049b2ab964736f6c63430005110032",
			"opcodes": "PUSH1 0x80 PUSH1 0x40 MSTORE PUSH1 0x0 DUP1 SLOAD PUSH1 0x1 PUSH1 0x1 PUSH1 0xA0 SHL SUB NOT AND PUSH20 0x931F176BEE590F13CA2B9D163C135F065C7A22CC OR SWAP1 SSTORE CALLVALUE DUP1 ISZERO PUSH2 0x36 JUMPI PUSH1 0x0 DUP1 REVERT JUMPDEST POP PUSH1 0xEF DUP1 PUSH2 0x45 PUSH1 0x0 CODECOPY PUSH1 0x0 RETURN INVALID PUSH1 0x80 PUSH1 0x40 MSTORE CALLVALUE DUP1 ISZERO PUSH1 0xF JUMPI PUSH1 0x0 DUP1 REVERT JUMPDEST POP PUSH1 0x4 CALLDATASIZE LT PUSH1 0x45 JUMPI PUSH1 0x0 CALLDATALOAD PUSH1 0xE0 SHR DUP1 PUSH3 0x3B5884 EQ PUSH1 0x4A JUMPI DUP1 PUSH4 0x26782247 EQ PUSH1 0x6C JUMPI DUP1 PUSH4 0xB06BB426 EQ PUSH1 0x72 JUMPI DUP1 PUSH4 0xF851A440 EQ PUSH1 0x78 JUMPI JUMPDEST PUSH1 0x0 DUP1 REVERT JUMPDEST PUSH1 0x50 PUSH1 0x7E JUMP JUMPDEST PUSH1 0x40 DUP1 MLOAD PUSH1 0x1 PUSH1 0x1 PUSH1 0xA0 SHL SUB SWAP1 SWAP3 AND DUP3 MSTORE MLOAD SWAP1 DUP2 SWAP1 SUB PUSH1 0x20 ADD SWAP1 RETURN JUMPDEST PUSH1 0x50 PUSH1 0x8D JUMP JUMPDEST PUSH1 0x50 PUSH1 0x9C JUMP JUMPDEST PUSH1 0x50 PUSH1 0xAB JUMP JUMPDEST PUSH1 0x2 SLOAD PUSH1 0x1 PUSH1 0x1 PUSH1 0xA0 SHL SUB AND DUP2 JUMP JUMPDEST PUSH1 0x1 SLOAD PUSH1 0x1 PUSH1 0x1 PUSH1 0xA0 SHL SUB AND DUP2 JUMP JUMPDEST PUSH1 0x3 SLOAD PUSH1 0x1 PUSH1 0x1 PUSH1 0xA0 SHL SUB AND DUP2 JUMP JUMPDEST PUSH1 0x0 SLOAD PUSH1 0x1 PUSH1 0x1 PUSH1 0xA0 SHL SUB AND DUP2 JUMP INVALID LOG2 PUSH6 0x627A7A723158 KECCAK256 PUSH22 0xC350944C154B3A2C379C7090B192FABAA5F29F9767EA SAR 0x29 SWAP9 JUMPDEST MUL DIV SWAP12 0x2A 0xB9 PUSH5 0x736F6C6343 STOP SDIV GT STOP ORIGIN "
		},
		"gasEstimates": {
			"creation": {
				"codeDepositCost": "47800",
				"executionCost": "20935",
				"totalCost": "68735"
			},
			"external": {
				"admin()": "1081",
				"pendingAdmin()": "1037",
				"pendingVAIControllerImplementation()": "1059",
				"vaiControllerImplementation()": "1015"
			}
		},
		"methodIdentifiers": {
			"admin()": "f851a440",
			"pendingAdmin()": "26782247",
			"pendingVAIControllerImplementation()": "b06bb426",
			"vaiControllerImplementation()": "003b5884"
		}
	},
	"abi": [
		{
			"constant": true,
			"inputs": [],
			"name": "admin",
			"outputs": [
				{
					"internalType": "address",
					"name": "",
					"type": "address"
				}
			],
			"payable": false,
			"stateMutability": "view",
			"type": "function"
		},
		{
			"constant": true,
			"inputs": [],
			"name": "pendingAdmin",
			"outputs": [
				{
					"internalType": "address",
					"name": "",
					"type": "address"
				}
			],
			"payable": false,
			"stateMutability": "view",
			"type": "function"
		},
		{
			"constant": true,
			"inputs": [],
			"name": "pendingVAIControllerImplementation",
			"outputs": [
				{
					"internalType": "address",
					"name": "",
					"type": "address"
				}
			],
			"payable": false,
			"stateMutability": "view",
			"type": "function"
		},
		{
			"constant": true,
			"inputs": [],
			"name": "vaiControllerImplementation",
			"outputs": [
				{
					"internalType": "address",
					"name": "",
					"type": "address"
				}
			],
			"payable": false,
			"stateMutability": "view",
			"type": "function"
		}
	]
}